{
  "contractName": "InfinityGame",
  "abi": [
    {
      "constant": true,
      "inputs": [],
      "name": "houseFee",
      "outputs": [
        {
          "name": "",
          "type": "uint256"
        }
      ],
      "payable": false,
      "stateMutability": "view",
      "type": "function"
    },
    {
      "constant": false,
      "inputs": [
        {
          "name": "_newGameTime",
          "type": "uint256"
        }
      ],
      "name": "setTimeOfAGame",
      "outputs": [],
      "payable": false,
      "stateMutability": "nonpayable",
      "type": "function"
    },
    {
      "constant": true,
      "inputs": [
        {
          "name": "",
          "type": "uint256"
        }
      ],
      "name": "cardArray",
      "outputs": [
        {
          "name": "",
          "type": "uint8"
        }
      ],
      "payable": false,
      "stateMutability": "view",
      "type": "function"
    },
    {
      "constant": true,
      "inputs": [],
      "name": "minimumPoolBalance",
      "outputs": [
        {
          "name": "",
          "type": "uint256"
        }
      ],
      "payable": false,
      "stateMutability": "view",
      "type": "function"
    },
    {
      "constant": true,
      "inputs": [
        {
          "name": "",
          "type": "uint256"
        }
      ],
      "name": "IDToPlayers",
      "outputs": [
        {
          "name": "playerID",
          "type": "uint256"
        },
        {
          "name": "handCardLength",
          "type": "uint256"
        },
        {
          "name": "bettorLength",
          "type": "uint256"
        }
      ],
      "payable": false,
      "stateMutability": "view",
      "type": "function"
    },
    {
      "constant": false,
      "inputs": [],
      "name": "unpause",
      "outputs": [],
      "payable": false,
      "stateMutability": "nonpayable",
      "type": "function"
    },
    {
      "constant": true,
      "inputs": [],
      "name": "randomnessContract",
      "outputs": [
        {
          "name": "",
          "type": "address"
        }
      ],
      "payable": false,
      "stateMutability": "view",
      "type": "function"
    },
    {
      "constant": false,
      "inputs": [],
      "name": "claimOwnership",
      "outputs": [],
      "payable": false,
      "stateMutability": "nonpayable",
      "type": "function"
    },
    {
      "constant": false,
      "inputs": [
        {
          "name": "_newHouseFee",
          "type": "uint256"
        }
      ],
      "name": "setHouseFee",
      "outputs": [],
      "payable": false,
      "stateMutability": "nonpayable",
      "type": "function"
    },
    {
      "constant": true,
      "inputs": [],
      "name": "NUMBER_OF_PIP",
      "outputs": [
        {
          "name": "",
          "type": "uint256"
        }
      ],
      "payable": false,
      "stateMutability": "view",
      "type": "function"
    },
    {
      "constant": true,
      "inputs": [],
      "name": "paused",
      "outputs": [
        {
          "name": "",
          "type": "bool"
        }
      ],
      "payable": false,
      "stateMutability": "view",
      "type": "function"
    },
    {
      "constant": false,
      "inputs": [],
      "name": "renounceOwnership",
      "outputs": [],
      "payable": false,
      "stateMutability": "nonpayable",
      "type": "function"
    },
    {
      "constant": true,
      "inputs": [],
      "name": "NUMBER_OF_PLAYER",
      "outputs": [
        {
          "name": "",
          "type": "uint256"
        }
      ],
      "payable": false,
      "stateMutability": "view",
      "type": "function"
    },
    {
      "constant": true,
      "inputs": [],
      "name": "adminEtherBalance",
      "outputs": [
        {
          "name": "",
          "type": "uint256"
        }
      ],
      "payable": false,
      "stateMutability": "view",
      "type": "function"
    },
    {
      "constant": false,
      "inputs": [],
      "name": "pause",
      "outputs": [],
      "payable": false,
      "stateMutability": "nonpayable",
      "type": "function"
    },
    {
      "constant": true,
      "inputs": [],
      "name": "owner",
      "outputs": [
        {
          "name": "",
          "type": "address"
        }
      ],
      "payable": false,
      "stateMutability": "view",
      "type": "function"
    },
    {
      "constant": true,
      "inputs": [],
      "name": "NUMBER_OF_TOTAL_CARDS",
      "outputs": [
        {
          "name": "",
          "type": "uint256"
        }
      ],
      "payable": false,
      "stateMutability": "view",
      "type": "function"
    },
    {
      "constant": true,
      "inputs": [],
      "name": "NUMBER_OF_SUIT",
      "outputs": [
        {
          "name": "",
          "type": "uint256"
        }
      ],
      "payable": false,
      "stateMutability": "view",
      "type": "function"
    },
    {
      "constant": true,
      "inputs": [
        {
          "name": "",
          "type": "uint256"
        }
      ],
      "name": "IDToGames",
      "outputs": [
        {
          "name": "gameID",
          "type": "uint256"
        },
        {
          "name": "playersLength",
          "type": "uint256"
        },
        {
          "name": "deckLength",
          "type": "uint256"
        },
        {
          "name": "dealedNumber",
          "type": "uint256"
        },
        {
          "name": "endTime",
          "type": "uint256"
        }
      ],
      "payable": false,
      "stateMutability": "view",
      "type": "function"
    },
    {
      "constant": false,
      "inputs": [
        {
          "name": "_newLimit",
          "type": "uint256"
        }
      ],
      "name": "setPlayerLimit",
      "outputs": [],
      "payable": false,
      "stateMutability": "nonpayable",
      "type": "function"
    },
    {
      "constant": true,
      "inputs": [
        {
          "name": "_gameID",
          "type": "uint256"
        }
      ],
      "name": "getGameFundPool",
      "outputs": [
        {
          "name": "",
          "type": "uint256"
        }
      ],
      "payable": false,
      "stateMutability": "view",
      "type": "function"
    },
    {
      "constant": true,
      "inputs": [],
      "name": "timeOfAGame",
      "outputs": [
        {
          "name": "",
          "type": "uint256"
        }
      ],
      "payable": false,
      "stateMutability": "view",
      "type": "function"
    },
    {
      "constant": true,
      "inputs": [],
      "name": "NUMBER_OF_HANDCARD",
      "outputs": [
        {
          "name": "",
          "type": "uint256"
        }
      ],
      "payable": false,
      "stateMutability": "view",
      "type": "function"
    },
    {
      "constant": true,
      "inputs": [],
      "name": "pendingOwner",
      "outputs": [
        {
          "name": "",
          "type": "address"
        }
      ],
      "payable": false,
      "stateMutability": "view",
      "type": "function"
    },
    {
      "constant": false,
      "inputs": [
        {
          "name": "newOwner",
          "type": "address"
        }
      ],
      "name": "transferOwnership",
      "outputs": [],
      "payable": false,
      "stateMutability": "nonpayable",
      "type": "function"
    },
    {
      "constant": true,
      "inputs": [],
      "name": "playerLimit",
      "outputs": [
        {
          "name": "",
          "type": "uint256"
        }
      ],
      "payable": false,
      "stateMutability": "view",
      "type": "function"
    },
    {
      "anonymous": false,
      "inputs": [
        {
          "indexed": false,
          "name": "playerID",
          "type": "uint256"
        }
      ],
      "name": "CreatePlayer",
      "type": "event"
    },
    {
      "anonymous": false,
      "inputs": [
        {
          "indexed": false,
          "name": "gameID",
          "type": "uint256"
        }
      ],
      "name": "CreatGame",
      "type": "event"
    },
    {
      "anonymous": false,
      "inputs": [],
      "name": "Pause",
      "type": "event"
    },
    {
      "anonymous": false,
      "inputs": [],
      "name": "Unpause",
      "type": "event"
    },
    {
      "anonymous": false,
      "inputs": [
        {
          "indexed": true,
          "name": "previousOwner",
          "type": "address"
        }
      ],
      "name": "OwnershipRenounced",
      "type": "event"
    },
    {
      "anonymous": false,
      "inputs": [
        {
          "indexed": true,
          "name": "previousOwner",
          "type": "address"
        },
        {
          "indexed": true,
          "name": "newOwner",
          "type": "address"
        }
      ],
      "name": "OwnershipTransferred",
      "type": "event"
    },
    {
      "constant": false,
      "inputs": [
        {
          "name": "_playerID",
          "type": "uint256"
        }
      ],
      "name": "bet",
      "outputs": [],
      "payable": true,
      "stateMutability": "payable",
      "type": "function"
    },
    {
      "constant": false,
      "inputs": [],
      "name": "createGame",
      "outputs": [],
      "payable": false,
      "stateMutability": "nonpayable",
      "type": "function"
    },
    {
      "constant": false,
      "inputs": [
        {
          "name": "_gameID",
          "type": "uint256"
        }
      ],
      "name": "settlementGame",
      "outputs": [],
      "payable": false,
      "stateMutability": "nonpayable",
      "type": "function"
    },
    {
      "constant": false,
      "inputs": [
        {
          "name": "_withdrawNumber",
          "type": "uint256"
        }
      ],
      "name": "adminWithdraw",
      "outputs": [],
      "payable": false,
      "stateMutability": "nonpayable",
      "type": "function"
    }
  ],
  "bytecode": "0x608060405261038060405190810160405280600060ff168152602001600160ff168152602001600260ff168152602001600360ff168152602001600460ff168152602001600560ff168152602001600660ff168152602001600760ff168152602001600860ff168152602001600960ff168152602001600a60ff168152602001600b60ff168152602001600c60ff168152602001600d60ff168152602001600e60ff168152602001600f60ff168152602001601060ff168152602001601160ff168152602001601260ff168152602001601360ff168152602001601460ff168152602001601560ff168152602001601660ff168152602001601760ff168152602001601860ff168152602001601960ff168152602001601a60ff168152602001601b60ff16815250600290601c620001399291906200022a565b5062000144620002cb565b604051809103906000f08015801562000161573d6000803e3d6000fd5b50600360006101000a81548173ffffffffffffffffffffffffffffffffffffffff021916908373ffffffffffffffffffffffffffffffffffffffff16021790555067016345785d8a00006004556706f05b59d3b200006005556000600655600a60075560b46008556000600b60006101000a81548160ff021916908315150217905550336000806101000a81548173ffffffffffffffffffffffffffffffffffffffff021916908373ffffffffffffffffffffffffffffffffffffffff1602179055506200030f565b82601c601f01602090048101928215620002b85791602002820160005b838211156200028757835183826101000a81548160ff021916908360ff160217905550926020019260010160208160000104928301926001030262000247565b8015620002b65782816101000a81549060ff021916905560010160208160000104928301926001030262000287565b505b509050620002c79190620002dc565b5090565b60405161078f80620035d683390190565b6200030c91905b808211156200030857600081816101000a81549060ff021916905550600101620002e3565b5090565b90565b6132b7806200031f6000396000f300608060405260043610610180576000357c0100000000000000000000000000000000000000000000000000000000900463ffffffff1680630ed469b8146101855780631167cdc7146101b05780631439bf4b146101dd5780631f5ca1dc146102245780633153d14c1461024f5780633f4ba83a1461029e57806341fe39ec146102b55780634e71e0c81461030c5780635a09f2f4146103235780635a572d9e146103505780635c975abb1461037b578063715018a6146103aa5780637255d729146103c15780637365870b146103d8578063793e1210146103f85780637c5b4a37146104235780637eb32d3b146104505780638456cb591461047b5780638da5cb5b146104925780638f8133ee146104e957806393ec53601461051457806398b594051461053f578063bf15e64c1461059c578063bf719efb146105c9578063cced371d1461060a578063cf87b00714610637578063d663540314610662578063e30c39781461068d578063f2fde38b146106e4578063f8bb7ec214610727575b600080fd5b34801561019157600080fd5b5061019a610752565b6040518082815260200191505060405180910390f35b3480156101bc57600080fd5b506101db60048036038101908080359060200190929190505050610758565b005b3480156101e957600080fd5b50610208600480360381019080803590602001909291905050506107bd565b604051808260ff1660ff16815260200191505060405180910390f35b34801561023057600080fd5b506102396107e6565b6040518082815260200191505060405180910390f35b34801561025b57600080fd5b5061027a600480360381019080803590602001909291905050506107ec565b60405180848152602001838152602001828152602001935050505060405180910390f35b3480156102aa57600080fd5b506102b3610816565b005b3480156102c157600080fd5b506102ca6108d5565b604051808273ffffffffffffffffffffffffffffffffffffffff1673ffffffffffffffffffffffffffffffffffffffff16815260200191505060405180910390f35b34801561031857600080fd5b506103216108fb565b005b34801561032f57600080fd5b5061034e60048036038101908080359060200190929190505050610a9a565b005b34801561035c57600080fd5b50610365610aff565b6040518082815260200191505060405180910390f35b34801561038757600080fd5b50610390610b04565b604051808215151515815260200191505060405180910390f35b3480156103b657600080fd5b506103bf610b17565b005b3480156103cd57600080fd5b506103d6610c19565b005b6103f660048036038101908080359060200190929190505050610e5f565b005b34801561040457600080fd5b5061040d610f1e565b6040518082815260200191505060405180910390f35b34801561042f57600080fd5b5061044e60048036038101908080359060200190929190505050610f23565b005b34801561045c57600080fd5b50610465610fef565b6040518082815260200191505060405180910390f35b34801561048757600080fd5b50610490610ff5565b005b34801561049e57600080fd5b506104a76110b5565b604051808273ffffffffffffffffffffffffffffffffffffffff1673ffffffffffffffffffffffffffffffffffffffff16815260200191505060405180910390f35b3480156104f557600080fd5b506104fe6110da565b6040518082815260200191505060405180910390f35b34801561052057600080fd5b506105296110df565b6040518082815260200191505060405180910390f35b34801561054b57600080fd5b5061056a600480360381019080803590602001909291905050506110e4565b604051808681526020018581526020018481526020018381526020018281526020019550505050505060405180910390f35b3480156105a857600080fd5b506105c76004803603810190808035906020019092919050505061111a565b005b3480156105d557600080fd5b506105f46004803603810190808035906020019092919050505061117f565b6040518082815260200191505060405180910390f35b34801561061657600080fd5b50610635600480360381019080803590602001909291905050506111e5565b005b34801561064357600080fd5b5061064c61149e565b6040518082815260200191505060405180910390f35b34801561066e57600080fd5b506106776114a4565b6040518082815260200191505060405180910390f35b34801561069957600080fd5b506106a26114a9565b604051808273ffffffffffffffffffffffffffffffffffffffff1673ffffffffffffffffffffffffffffffffffffffff16815260200191505060405180910390f35b3480156106f057600080fd5b50610725600480360381019080803573ffffffffffffffffffffffffffffffffffffffff1690602001909291905050506114cf565b005b34801561073357600080fd5b5061073c61156e565b6040518082815260200191505060405180910390f35b60075481565b6000809054906101000a900473ffffffffffffffffffffffffffffffffffffffff1673ffffffffffffffffffffffffffffffffffffffff163373ffffffffffffffffffffffffffffffffffffffff161415156107b357600080fd5b8060088190555050565b600281601c811015156107cc57fe5b60209182820401919006915054906101000a900460ff1681565b60055481565b600a6020528060005260406000206000915090508060000154908060020154908060040154905083565b6000809054906101000a900473ffffffffffffffffffffffffffffffffffffffff1673ffffffffffffffffffffffffffffffffffffffff163373ffffffffffffffffffffffffffffffffffffffff1614151561087157600080fd5b600b60009054906101000a900460ff16151561088c57600080fd5b6000600b60006101000a81548160ff0219169083151502179055507f7805862f689e2f13df9f062ff482ad3ad112aca9e0847911ed832e158c525b3360405160405180910390a1565b600360009054906101000a900473ffffffffffffffffffffffffffffffffffffffff1681565b600160009054906101000a900473ffffffffffffffffffffffffffffffffffffffff1673ffffffffffffffffffffffffffffffffffffffff163373ffffffffffffffffffffffffffffffffffffffff1614151561095757600080fd5b600160009054906101000a900473ffffffffffffffffffffffffffffffffffffffff1673ffffffffffffffffffffffffffffffffffffffff166000809054906101000a900473ffffffffffffffffffffffffffffffffffffffff1673ffffffffffffffffffffffffffffffffffffffff167f8be0079c531659141344cd1fd0a4f28419497f9722a3daafe3b4186f6b6457e060405160405180910390a3600160009054906101000a900473ffffffffffffffffffffffffffffffffffffffff166000806101000a81548173ffffffffffffffffffffffffffffffffffffffff021916908373ffffffffffffffffffffffffffffffffffffffff1602179055506000600160006101000a81548173ffffffffffffffffffffffffffffffffffffffff021916908373ffffffffffffffffffffffffffffffffffffffff160217905550565b6000809054906101000a900473ffffffffffffffffffffffffffffffffffffffff1673ffffffffffffffffffffffffffffffffffffffff163373ffffffffffffffffffffffffffffffffffffffff16141515610af557600080fd5b8060078190555050565b600781565b600b60009054906101000a900460ff1681565b6000809054906101000a900473ffffffffffffffffffffffffffffffffffffffff1673ffffffffffffffffffffffffffffffffffffffff163373ffffffffffffffffffffffffffffffffffffffff16141515610b7257600080fd5b6000809054906101000a900473ffffffffffffffffffffffffffffffffffffffff1673ffffffffffffffffffffffffffffffffffffffff167ff8df31144d9c2f0f6b59d69b8b98abd5459d07f2742c4df920b25aae33c6482060405160405180910390a260008060006101000a81548173ffffffffffffffffffffffffffffffffffffffff021916908373ffffffffffffffffffffffffffffffffffffffff160217905550565b60008060008060009054906101000a900473ffffffffffffffffffffffffffffffffffffffff1673ffffffffffffffffffffffffffffffffffffffff163373ffffffffffffffffffffffffffffffffffffffff16141515610c7957600080fd5b600b60009054906101000a900460ff16151515610c9557600080fd5b610c9f6000611574565b9250610caa83611574565b915060a06040519081016040528084815260200160058152602001601c815260200160008152602001610ce86008544261178490919063ffffffff16565b815250600960008581526020019081526020016000206000820151816000015560208201518160020155604082015181600401556060820151816005015560808201518160060155905050610d3c836117a5565b600090505b6005811015610e2357610d5382611574565b9150606060405190810160405280838152602001600081526020016000815250600a60008481526020019081526020016000206000820151816000015560208201518160020155604082015181600401559050508160096000858152602001908152602001600020600101600083815260200190815260200160002081905550610ddf838260036119ac565b7f439f92d5ca6f2a76cb6a70363c3cda7a2254445edbaa7e64ffa7452ba4dc18c7826040518082815260200191505060405180910390a18080600101915050610d41565b7f52bdea80a96f0ac08ef87faab573de7cc0e1e02cbc6950c7b558271c0e5eb897836040518082815260200191505060405180910390a1505050565b6000600b60009054906101000a900460ff16151515610e7d57600080fd5b60045434141515610e8d57600080fd5b600a60008381526020019081526020016000209050338160030160008360040154815260200190815260200160002060006101000a81548173ffffffffffffffffffffffffffffffffffffffff021916908373ffffffffffffffffffffffffffffffffffffffff160217905550610f126001826004015461178490919063ffffffff16565b81600401819055505050565b600581565b6000809054906101000a900473ffffffffffffffffffffffffffffffffffffffff1673ffffffffffffffffffffffffffffffffffffffff163373ffffffffffffffffffffffffffffffffffffffff16141515610f7e57600080fd5b8060065410151515610f8f57600080fd5b610fa481600654611bb390919063ffffffff16565b503373ffffffffffffffffffffffffffffffffffffffff166108fc829081150290604051600060405180830381858888f19350505050158015610feb573d6000803e3d6000fd5b5050565b60065481565b6000809054906101000a900473ffffffffffffffffffffffffffffffffffffffff1673ffffffffffffffffffffffffffffffffffffffff163373ffffffffffffffffffffffffffffffffffffffff1614151561105057600080fd5b600b60009054906101000a900460ff1615151561106c57600080fd5b6001600b60006101000a81548160ff0219169083151502179055507f6985a02210a168e66602d3235cb6db0e70f92b3ba4d376a33c0f3d9434bff62560405160405180910390a1565b6000809054906101000a900473ffffffffffffffffffffffffffffffffffffffff1681565b601c81565b600481565b60096020528060005260406000206000915090508060000154908060020154908060040154908060050154908060060154905085565b6000809054906101000a900473ffffffffffffffffffffffffffffffffffffffff1673ffffffffffffffffffffffffffffffffffffffff163373ffffffffffffffffffffffffffffffffffffffff1614151561117557600080fd5b8060048190555050565b6000806000809150600090505b60058110156111c4576111b56111a28583611bd4565b600401548361178490919063ffffffff16565b9150808060010191505061118c565b6111d960045483611c1890919063ffffffff16565b91508192505050919050565b60008060008060008060009054906101000a900473ffffffffffffffffffffffffffffffffffffffff1673ffffffffffffffffffffffffffffffffffffffff163373ffffffffffffffffffffffffffffffffffffffff1614151561124857600080fd5b600b60009054906101000a900460ff1615151561126457600080fd5b6009600087815260200190815260200160002060060154421015151561128957600080fd5b6112928661117f565b9450600093505b60058410156112cd576112ae868560026119ac565b6112c06112bb8786611bd4565b611c56565b8380600101945050611299565b600554851015156113cc576112e186611fc2565b92506000600a6000858152602001908152602001600020600401541415611322576113178560065461178490919063ffffffff16565b6006819055506113c7565b61135e61134d606461133f60075489611c1890919063ffffffff16565b6121a390919063ffffffff16565b60065461178490919063ffffffff16565b60068190555061138f606461138160075460640388611c1890919063ffffffff16565b6121a390919063ffffffff16565b94506113ba600a600085815260200190815260200160002060040154866121a390919063ffffffff16565b91506113c683836121cd565b5b611496565b600093505b600584101561149557600090505b6113e98685611bd4565b60040154811015611488576113fe8685611bd4565b600301600082815260200190815260200160002060009054906101000a900473ffffffffffffffffffffffffffffffffffffffff1673ffffffffffffffffffffffffffffffffffffffff166108fc6004549081150290604051600060405180830381858888f1935050505015801561147a573d6000803e3d6000fd5b5080806001019150506113df565b83806001019450506113d1565b5b505050505050565b60085481565b600581565b600160009054906101000a900473ffffffffffffffffffffffffffffffffffffffff1681565b6000809054906101000a900473ffffffffffffffffffffffffffffffffffffffff1673ffffffffffffffffffffffffffffffffffffffff163373ffffffffffffffffffffffffffffffffffffffff1614151561152a57600080fd5b80600160006101000a81548173ffffffffffffffffffffffffffffffffffffffff021916908373ffffffffffffffffffffffffffffffffffffffff16021790555050565b60045481565b60008060009054906101000a900473ffffffffffffffffffffffffffffffffffffffff1673ffffffffffffffffffffffffffffffffffffffff163373ffffffffffffffffffffffffffffffffffffffff161415156115d157600080fd5b600360009054906101000a900473ffffffffffffffffffffffffffffffffffffffff1673ffffffffffffffffffffffffffffffffffffffff1663f3be762660003633866040516020018085858082843782019150508373ffffffffffffffffffffffffffffffffffffffff1673ffffffffffffffffffffffffffffffffffffffff166c010000000000000000000000000281526014018281526020019450505050506040516020818303038152906040526040518082805190602001908083835b6020831015156116b75780518252602082019150602081019050602083039250611692565b6001836020036101000a03801982511681845116808217855250505050505090500191505060405180910390206040518263ffffffff167c0100000000000000000000000000000000000000000000000000000000028152600401808260001916600019168152602001915050602060405180830381600087803b15801561173e57600080fd5b505af1158015611752573d6000803e3d6000fd5b505050506040513d602081101561176857600080fd5b8101908080519060200190929190505050600190049050919050565b600080828401905083811015151561179b57600080fd5b8091505092915050565b60006117af613131565b6000806000806000809054906101000a900473ffffffffffffffffffffffffffffffffffffffff1673ffffffffffffffffffffffffffffffffffffffff163373ffffffffffffffffffffffffffffffffffffffff1614151561181057600080fd5b6009600088815260200190815260200160002060030195506002601c806020026040519081016040528092919082601c8015611887576020028201916000905b82829054906101000a900460ff1660ff16815260200190600101906020826000010492830192600103820291508084116118505790505b50505050509450601c9350600090505b6001601c0381101561195c576118d06118c1856118b384611574565b6122ed90919063ffffffff16565b8261178490919063ffffffff16565b91506118e6600185611bb390919063ffffffff16565b93508482601c811015156118f657fe5b602002015192508481601c8110151561190b57fe5b60200201518583601c8110151561191e57fe5b602002019060ff16908160ff1681525050828582601c8110151561193e57fe5b602002019060ff16908160ff16815250508080600101915050611897565b600090505b601c8110156119a3578481601c8110151561197857fe5b602002015160ff16866000838152602001908152602001600020819055508080600101915050611961565b50505050505050565b60008060008060008060009054906101000a900473ffffffffffffffffffffffffffffffffffffffff1673ffffffffffffffffffffffffffffffffffffffff163373ffffffffffffffffffffffffffffffffffffffff16141515611a0f57600080fd5b611a198888611bd4565b9450600960008981526020019081526020016000209350836003019250611a4d85600201548761178490919063ffffffff16565b9150846002015490505b81811015611ba9576040805190810160405280611a94600486600089600501548152602001908152602001600020546122ed90919063ffffffff16565b6003811115611a9f57fe5b6003811115611aaa57fe5b8152602001611ad9600486600089600501548152602001908152602001600020546121a390919063ffffffff16565b6006811115611ae457fe5b6006811115611aef57fe5b81525085600101600083815260200190815260200160002060008201518160000160006101000a81548160ff02191690836003811115611b2b57fe5b021790555060208201518160000160016101000a81548160ff02191690836006811115611b5457fe5b0217905550905050611b746001856005015461178490919063ffffffff16565b8460050181905550611b946001866002015461178490919063ffffffff16565b85600201819055508080600101915050611a57565b5050505050505050565b600080838311151515611bc557600080fd5b82840390508091505092915050565b6000600a6000600960008681526020019081526020016000206001016000858152602001908152602001600020548152602001908152602001600020905092915050565b6000806000841415611c2d5760009150611c4f565b8284029050828482811515611c3e57fe5b04141515611c4b57600080fd5b8091505b5092915050565b6000611c60613155565b6000611c6a613178565b600080866001019550600091505b6005821015611d0d5785600083815260200190815260200160002060000160009054906101000a900460ff166003811115611caf57fe5b600487600085815260200190815260200160002060000160019054906101000a900460ff166006811115611cdf57fe5b02018583600581101515611cef57fe5b602002019060ff16908160ff16815250508180600101925050611c78565b600091505b611d2760016005611bb390919063ffffffff16565b821015611fb957600090505b611d5a82611d4c60016005611bb390919063ffffffff16565b611bb390919063ffffffff16565b8160ff161015611fac57846001820160ff16600581101515611d7857fe5b602002015160ff16858260ff16600581101515611d9157fe5b602002015160ff161115611f9f57846001820160ff16600581101515611db357fe5b60200201519350848160ff16600581101515611dcb57fe5b6020020151856001830160ff16600581101515611de457fe5b602002019060ff16908160ff168152505083858260ff16600581101515611e0757fe5b602002019060ff16908160ff16815250508560006001830160ff1681526020019081526020016000206040805190810160405290816000820160009054906101000a900460ff166003811115611e5957fe5b6003811115611e6457fe5b81526020016000820160019054906101000a900460ff166006811115611e8657fe5b6006811115611e9157fe5b8152505092508560008260ff1681526020019081526020016000208660006001840160ff1681526020019081526020016000206000820160009054906101000a900460ff168160000160006101000a81548160ff02191690836003811115611ef557fe5b02179055506000820160019054906101000a900460ff168160000160016101000a81548160ff02191690836006811115611f2b57fe5b0217905550905050828660008360ff16815260200190815260200160002060008201518160000160006101000a81548160ff02191690836003811115611f6d57fe5b021790555060208201518160000160016101000a81548160ff02191690836006811115611f9657fe5b02179055509050505b8080600101915050611d33565b8180600101925050611d12565b50505050505050565b600080611fcd6131a8565b611fd56131a8565b60008060009450611fef611fea886000611bd4565b612312565b9350600191505b60058260ff16101561216c57612017612012888460ff16611bd4565b612312565b92508360000151600881111561202957fe5b8360000151600881111561203957fe5b111561204a5782935081945061215f565b8360000151600881111561205a57fe5b8360000151600881111561206a57fe5b141561215e57600090505b60058160ff16101561215d5783602001518160ff1660058110151561209657fe5b602002015160000b83602001518260ff166005811015156120b357fe5b602002015160000b13156120cc5782935081945061215d565b83602001518160ff166005811015156120e157fe5b602002015160000b83602001518260ff166005811015156120fe57fe5b602002015160000b12156121115761215d565b61212660016005611bb390919063ffffffff16565b8160ff161480156121445750836040015160000b836040015160000b135b15612150578293508194505b8080600101915050612075565b5b5b8180600101925050611ff6565b6009600088815260200190815260200160002060010160008660ff1681526020019081526020016000205495505050505050919050565b6000806000831115156121b557600080fd5b82848115156121c057fe5b0490508091505092915050565b60008060009054906101000a900473ffffffffffffffffffffffffffffffffffffffff1673ffffffffffffffffffffffffffffffffffffffff163373ffffffffffffffffffffffffffffffffffffffff1614151561222a57600080fd5b600090505b600a6000848152602001908152602001600020600401548110156122e857600a6000848152602001908152602001600020600301600082815260200190815260200160002060009054906101000a900473ffffffffffffffffffffffffffffffffffffffff1673ffffffffffffffffffffffffffffffffffffffff166108fc839081150290604051600060405180830381858888f193505050501580156122da573d6000803e3d6000fd5b50808060010191505061222f565b505050565b60008082141515156122fe57600080fd5b818381151561230957fe5b06905092915050565b61231a6131a8565b6123226131dd565b61232a613200565b612332613223565b61233a613246565b6000806000806000608060405190810160405280600060ff168152602001600060ff168152602001600060ff168152602001600060ff16815250985060e060405190810160405280600060ff168152602001600060ff168152602001600060ff168152602001600060ff168152602001600060ff168152602001600060ff168152602001600060ff16815250975060a0604051908101604052807fffffffffffffffffffffffffffffffffffffffffffffffffffffffffffffffff60000b81526020017fffffffffffffffffffffffffffffffffffffffffffffffffffffffffffffffff60000b81526020017fffffffffffffffffffffffffffffffffffffffffffffffffffffffffffffffff60000b81526020017fffffffffffffffffffffffffffffffffffffffffffffffffffffffffffffffff60000b81526020017fffffffffffffffffffffffffffffffffffffffffffffffffffffffffffffffff60000b815250965060408051908101604052807fffffffffffffffffffffffffffffffffffffffffffffffffffffffffffffffff60000b81526020017fffffffffffffffffffffffffffffffffffffffffffffffffffffffffffffffff60000b81525095507fffffffffffffffffffffffffffffffffffffffffffffffffffffffffffffffff9450600093508a6001019250600091505b60058210156128ee5761259260018a85600086815260200190815260200160002060000160009054906101000a900460ff16600381111561256d57fe5b60ff1660048110151561257c57fe5b602002015160ff1661178490919063ffffffff16565b8984600085815260200190815260200160002060000160009054906101000a900460ff1660038111156125c157fe5b60ff166004811015156125d057fe5b602002019060ff16908160ff168152505061263a60018985600086815260200190815260200160002060000160019054906101000a900460ff16600681111561261557fe5b60ff1660078110151561262457fe5b602002015160ff1661178490919063ffffffff16565b8884600085815260200190815260200160002060000160019054906101000a900460ff16600681111561266957fe5b60ff1660078110151561267857fe5b602002019060ff16908160ff168152505060048884600085815260200190815260200160002060000160019054906101000a900460ff1660068111156126ba57fe5b60ff166007811015156126c957fe5b602002015160ff16141561270c57600793506060604051908101604052808560088111156126f357fe5b81526020018881526020018660000b8152509950613123565b60038884600085815260200190815260200160002060000160019054906101000a900460ff16600681111561273d57fe5b60ff1660078110151561274c57fe5b602002015160ff1614156127b1576003935082600083815260200190815260200160002060000160019054906101000a900460ff16600681111561278c57fe5b87600060058110151561279b57fe5b602002019060000b908160000b815250506128e1565b60028884600085815260200190815260200160002060000160019054906101000a900460ff1660068111156127e257fe5b60ff166007811015156127f157fe5b602002015160ff1614156128e0577fffffffffffffffffffffffffffffffffffffffffffffffffffffffffffffffff86600060028110151561282f57fe5b602002015160000b14156128905782600083815260200190815260200160002060000160019054906101000a900460ff16600681111561286b57fe5b86600060028110151561287a57fe5b602002019060000b908160000b815250506128df565b82600083815260200190815260200160002060000160019054906101000a900460ff1660068111156128be57fe5b8660016002811015156128cd57fe5b602002019060000b908160000b815250505b5b5b8180600101925050612530565b60058984600080815260200190815260200160002060000160009054906101000a900460ff16600381111561291f57fe5b60ff1660048110151561292e57fe5b602002015160ff161415612ab65760046129b284600080815260200190815260200160002060000160019054906101000a900460ff16600681111561296f57fe5b60ff168560006004815260200190815260200160002060000160019054906101000a900460ff1660068111156129a157fe5b60ff16611bb390919063ffffffff16565b1415612a1057600893508260006004815260200190815260200160002060000160019054906101000a900460ff1660068111156129eb57fe5b8760006005811015156129fa57fe5b602002019060000b908160000b81525050612a80565b60059350600091505b6005821015612a7f5782600083600403815260200190815260200160002060000160019054906101000a900460ff166006811115612a5357fe5b8783600581101515612a6157fe5b602002019060000b908160000b815250508180600101925050612a19565b5b8260006004815260200190815260200160002060000160009054906101000a900460ff166003811115612aaf57fe5b94506130f6565b60036008811115612ac357fe5b846008811115612acf57fe5b1415612b1e577fffffffffffffffffffffffffffffffffffffffffffffffffffffffffffffffff866001600281101515612b0557fe5b602002015160000b141515612b1957600693505b6130f5565b7fffffffffffffffffffffffffffffffffffffffffffffffffffffffffffffffff866000600281101515612b4e57fe5b602002015160000b1415612cd2576004612bd284600080815260200190815260200160002060000160019054906101000a900460ff166006811115612b8f57fe5b60ff168560006004815260200190815260200160002060000160019054906101000a900460ff166006811115612bc157fe5b60ff16611bb390919063ffffffff16565b1415612c3057600493508260006004815260200190815260200160002060000160019054906101000a900460ff166006811115612c0b57fe5b876000600581101515612c1a57fe5b602002019060000b908160000b81525050612c9c565b600091505b6005821015612c9b5782600083600403815260200190815260200160002060000160019054906101000a900460ff166006811115612c6f57fe5b8783600581101515612c7d57fe5b602002019060000b908160000b815250508180600101925050612c35565b5b8260006004815260200190815260200160002060000160009054906101000a900460ff166003811115612ccb57fe5b94506130f4565b7fffffffffffffffffffffffffffffffffffffffffffffffffffffffffffffffff866001600281101515612d0257fe5b602002015160000b141515612fb35760029350856001600281101515612d2457fe5b602002015160000b866000600281101515612d3b57fe5b602002015160000b1315612db657856000600281101515612d5857fe5b6020020151876000600581101515612d6c57fe5b602002019060000b908160000b81525050856001600281101515612d8c57fe5b6020020151876001600581101515612da057fe5b602002019060000b908160000b81525050612e1f565b856001600281101515612dc557fe5b6020020151876000600581101515612dd957fe5b602002019060000b908160000b81525050856000600281101515612df957fe5b6020020151876001600581101515612e0d57fe5b602002019060000b908160000b815250505b600091505b6005821015612fae57856000600281101515612e3c57fe5b602002015160000b83600084815260200190815260200160002060000160019054906101000a900460ff166006811115612e7257fe5b60000b14158015612ec95750856001600281101515612e8d57fe5b602002015160000b83600084815260200190815260200160002060000160019054906101000a900460ff166006811115612ec357fe5b60000b14155b15612f215782600083815260200190815260200160002060000160019054906101000a900460ff166006811115612efc57fe5b876002600581101515612f0b57fe5b602002019060000b908160000b81525050612fa1565b856000600281101515612f3057fe5b602002015160000b83600084815260200190815260200160002060000160019054906101000a900460ff166006811115612f6657fe5b60000b1415612fa05782600083815260200190815260200160002060000160009054906101000a900460ff166003811115612f9d57fe5b94505b5b8180600101925050612e24565b6130f3565b60019350856000600281101515612fc657fe5b6020020151876000600581101515612fda57fe5b602002019060000b908160000b8152505060039050600091505b60058210156130f25785600060028110151561300c57fe5b602002015160000b83600084815260200190815260200160002060000160019054906101000a900460ff16600681111561304257fe5b60000b1415156130b45782600083815260200190815260200160002060000160019054906101000a900460ff16600681111561307a57fe5b878260058110151561308857fe5b602002019060000b908160000b815250506130ad600182611bb390919063ffffffff16565b90506130e5565b82600083815260200190815260200160002060000160009054906101000a900460ff1660038111156130e257fe5b94505b8180600101925050612ff4565b5b5b5b5b60606040519081016040528085600881111561310e57fe5b81526020018881526020018660000b81525099505b505050505050505050919050565b61038060405190810160405280601c90602082028038833980820191505090505090565b60a060405190810160405280600590602082028038833980820191505090505090565b60408051908101604052806000600381111561319057fe5b8152602001600060068111156131a257fe5b81525090565b60e060405190810160405280600060088111156131c157fe5b81526020016131ce613268565b81526020016000800b81525090565b608060405190810160405280600490602082028038833980820191505090505090565b60e060405190810160405280600790602082028038833980820191505090505090565b60a060405190810160405280600590602082028038833980820191505090505090565b6040805190810160405280600290602082028038833980820191505090505090565b60a0604051908101604052806005906020820280388339808201915050905050905600a165627a7a7230582061cb594e5b4f583f6cc7260fa7e8f214da2224d678f2e5450c3baa82f567f0df002960806040527f68d8add98e690000000000000000000000000000000000000000000000000000600290600019169055336000806101000a81548173ffffffffffffffffffffffffffffffffffffffff021916908373ffffffffffffffffffffffffffffffffffffffff1602179055506107128061007d6000396000f300608060405260043610610078576000357c0100000000000000000000000000000000000000000000000000000000900463ffffffff1680634e71e0c81461007d578063715018a6146100945780638da5cb5b146100ab578063e30c397814610102578063f2fde38b14610159578063f3be76261461019c575b600080fd5b34801561008957600080fd5b506100926101e9565b005b3480156100a057600080fd5b506100a9610388565b005b3480156100b757600080fd5b506100c061048a565b604051808273ffffffffffffffffffffffffffffffffffffffff1673ffffffffffffffffffffffffffffffffffffffff16815260200191505060405180910390f35b34801561010e57600080fd5b506101176104af565b604051808273ffffffffffffffffffffffffffffffffffffffff1673ffffffffffffffffffffffffffffffffffffffff16815260200191505060405180910390f35b34801561016557600080fd5b5061019a600480360381019080803573ffffffffffffffffffffffffffffffffffffffff1690602001909291905050506104d5565b005b3480156101a857600080fd5b506101cb6004803603810190808035600019169060200190929190505050610574565b60405180826000191660001916815260200191505060405180910390f35b600160009054906101000a900473ffffffffffffffffffffffffffffffffffffffff1673ffffffffffffffffffffffffffffffffffffffff163373ffffffffffffffffffffffffffffffffffffffff1614151561024557600080fd5b600160009054906101000a900473ffffffffffffffffffffffffffffffffffffffff1673ffffffffffffffffffffffffffffffffffffffff166000809054906101000a900473ffffffffffffffffffffffffffffffffffffffff1673ffffffffffffffffffffffffffffffffffffffff167f8be0079c531659141344cd1fd0a4f28419497f9722a3daafe3b4186f6b6457e060405160405180910390a3600160009054906101000a900473ffffffffffffffffffffffffffffffffffffffff166000806101000a81548173ffffffffffffffffffffffffffffffffffffffff021916908373ffffffffffffffffffffffffffffffffffffffff1602179055506000600160006101000a81548173ffffffffffffffffffffffffffffffffffffffff021916908373ffffffffffffffffffffffffffffffffffffffff160217905550565b6000809054906101000a900473ffffffffffffffffffffffffffffffffffffffff1673ffffffffffffffffffffffffffffffffffffffff163373ffffffffffffffffffffffffffffffffffffffff161415156103e357600080fd5b6000809054906101000a900473ffffffffffffffffffffffffffffffffffffffff1673ffffffffffffffffffffffffffffffffffffffff167ff8df31144d9c2f0f6b59d69b8b98abd5459d07f2742c4df920b25aae33c6482060405160405180910390a260008060006101000a81548173ffffffffffffffffffffffffffffffffffffffff021916908373ffffffffffffffffffffffffffffffffffffffff160217905550565b6000809054906101000a900473ffffffffffffffffffffffffffffffffffffffff1681565b600160009054906101000a900473ffffffffffffffffffffffffffffffffffffffff1681565b6000809054906101000a900473ffffffffffffffffffffffffffffffffffffffff1673ffffffffffffffffffffffffffffffffffffffff163373ffffffffffffffffffffffffffffffffffffffff1614151561053057600080fd5b80600160006101000a81548173ffffffffffffffffffffffffffffffffffffffff021916908373ffffffffffffffffffffffffffffffffffffffff16021790555050565b60008060009054906101000a900473ffffffffffffffffffffffffffffffffffffffff1673ffffffffffffffffffffffffffffffffffffffff163373ffffffffffffffffffffffffffffffffffffffff161415156105d157600080fd5b81600260008282541892505081600019169055508160025442446040516020018085600019166000191681526020018460001916600019168152602001838152602001828152602001807fe58fb0e781a3e3818de0a4a8e0a58de0a4a6e0a580ed959cd8add98e4e6f2e3181526020017f203a2920000000000000000000000000000000000000000000000000000000008152506024019450505050506040516020818303038152906040526040518082805190602001908083835b6020831015156106b2578051825260208201915060208101905060208303925061068d565b6001836020036101000a038019825116818451168082178552505050505050905001915050604051809103902090509190505600a165627a7a723058208b48c27fcca166ce64702ddfa3212ef3a1f3f997c62d0974838e87a97da022930029",
  "source": "pragma solidity ^0.4.24;\n\nimport \"./Base.sol\";\nimport \"./openzeppelin-solidity/lifecycle/Pausable.sol\";\n\ncontract InfinityGame is Base, Pausable{\n    function bet(uint256 _playerID) public payable whenNotPaused {\n        require (msg.value == playerLimit);\n        Player storage player = IDToPlayers[_playerID];\n        player.bettor[player.bettorLength] = msg.sender;\n        player.bettorLength = player.bettorLength.add(1);\n    }\n\n    event CreatePlayer (uint256 playerID);\n    event CreatGame (uint256 gameID);\n\n    function createGame() public onlyOwner whenNotPaused {\n        uint256 gameID = _rand(0);\n        uint256 playerID = _rand(gameID);\n\n        IDToGames[gameID] = Game({\n            gameID: gameID,\n            playersLength: NUMBER_OF_PLAYER,\n            deckLength: NUMBER_OF_TOTAL_CARDS,\n            dealedNumber: 0,\n            endTime: block.timestamp.add(timeOfAGame)\n        });\n\n        _shuffle(gameID);\n\n        for (uint256 i = 0; i < NUMBER_OF_PLAYER; i++) {\n            playerID = _rand(playerID);\n\n            IDToPlayers[playerID] = Player({\n                playerID: playerID,\n                handCardLength: 0,\n                bettorLength: 0\n            });\n\n            IDToGames[gameID].playersID[i] = playerID;\n            _dealCards(gameID, i, 3);\n\n            emit CreatePlayer(playerID);\n        }\n\n        emit CreatGame(gameID);\n    }\n\n    function _dealCards(uint256 _gameID, uint256 _playerNum, uint256 _numOfDeal) private onlyOwner {\n        Player storage player = getPlayerInfoOfAGame(_gameID, _playerNum);\n        Game storage game = IDToGames[_gameID];\n        mapping(uint256 => uint256) deck = game.deck;\n        uint256 numOfDeal = _numOfDeal.add(player.handCardLength);\n\n        for (uint i = player.handCardLength; i < numOfDeal; i++) {\n            player.handCard[i] = Card(Suit(deck[game.dealedNumber].mod(4)), Value(deck[game.dealedNumber].div(4)));\n            game.dealedNumber = game.dealedNumber.add(1);\n            player.handCardLength = player.handCardLength.add(1);\n        }\n    }\n\n    function _shuffle(uint256 _gameID) private onlyOwner {\n        mapping(uint256 => uint256) deck = IDToGames[_gameID].deck;\n        uint8[NUMBER_OF_TOTAL_CARDS] memory tmpdeck = cardArray;\n        uint256 num = NUMBER_OF_TOTAL_CARDS;\n        uint8 tmp;\n        uint256 n;\n\n        for (uint256 i = 0; i < NUMBER_OF_TOTAL_CARDS-1; i++) {\n            n = i.add(_rand(i).mod(num));\n            num = num.sub(1);\n            tmp = tmpdeck[n];\n            tmpdeck[n] = tmpdeck[i];\n            tmpdeck[i] = tmp;\n        }\n\n        for (i = 0; i < NUMBER_OF_TOTAL_CARDS; i++) {\n            deck[i] = tmpdeck[i];\n        }\n    }\n\n    function settlementGame(uint256 _gameID) public onlyOwner whenNotPaused {\n    //function settlementGame(uint256 _gameID, uint256 _winnerPlayer) public onlyOwner {\n        require(block.timestamp >= IDToGames[_gameID].endTime);\n        uint256 pool = getGameFundPool(_gameID);\n\n        for (uint256 i = 0; i < NUMBER_OF_PLAYER; i++) {\n            _dealCards(_gameID, i, 2);\n            _sortHandCard(getPlayerInfoOfAGame(_gameID, i));\n        }\n\n        if (pool >= minimumPoolBalance) {\n            uint256 winnerPlayer = _whoIsWinner(_gameID);\n            if (IDToPlayers[winnerPlayer].bettorLength == 0) {\n                adminEtherBalance = adminEtherBalance.add(pool);\n            }\n            else {\n                adminEtherBalance = adminEtherBalance.add(pool.mul(houseFee).div(100));\n                pool = pool.mul(100-houseFee).div(100);\n                uint256 avgEther = pool.div(IDToPlayers[winnerPlayer].bettorLength);\n\n                _distributionEther(winnerPlayer, avgEther);\n            }\n        }\n        else {\n            for (i = 0; i < NUMBER_OF_PLAYER; i++) {\n                for (uint256 j = 0; j < getPlayerInfoOfAGame(_gameID, i).bettorLength; j++) {\n                    getPlayerInfoOfAGame(_gameID, i).bettor[j].transfer(playerLimit);\n                }\n            }\n        }\n    }\n\n    function _sortHandCard(Player storage _player) private {\n        mapping(uint256 => Card) handCard = _player.handCard;\n        uint8[NUMBER_OF_HANDCARD] memory tmp;\n        uint8 tmpNumber;\n        Card memory tmpCard;\n\n        for (uint256 i = 0; i < 5; i++) {\n            tmp[i] = uint8(handCard[i].value) * 4 + uint8(handCard[i].suit);\n        }\n\n        for (i = 0; i < NUMBER_OF_HANDCARD.sub(1); i++) {\n            for (uint8 j = 0; j < NUMBER_OF_HANDCARD.sub(1).sub(i); j++) {\n                if (tmp[j] > tmp[j+1]) {\n                    tmpNumber = tmp[j+1];\n                    tmp[j+1] = tmp[j];\n                    tmp[j] = tmpNumber;\n\n                    tmpCard = handCard[j+1];\n                    handCard[j+1] = handCard[j];\n                    handCard[j] = tmpCard;\n                }\n            }\n        }\n    }\n\n    function _whoIsWinner(uint256 _gameID) private view returns (uint256) {\n        uint8 winner = 0;\n        EvaluateHand memory max = _evaluateHand(getPlayerInfoOfAGame(_gameID, 0));\n        EvaluateHand memory tmp;\n\n        for (uint8 i = 1; i < NUMBER_OF_PLAYER; i++) {\n            tmp = _evaluateHand(getPlayerInfoOfAGame(_gameID, i));\n\n            if (tmp.handValue > max.handValue) {\n                max = tmp;\n                winner = i;\n            }\n            else if (tmp.handValue == max.handValue) {\n                for (uint8 j = 0; j < NUMBER_OF_HANDCARD; j++) {\n                    if (tmp.compareCardArr[j] > max.compareCardArr[j]) {\n                        max = tmp;\n                        winner = i;\n                        break;\n                    }\n                    else if (tmp.compareCardArr[j] < max.compareCardArr[j]) {\n                        break;\n                    }\n                    else if (j == NUMBER_OF_HANDCARD.sub(1) && tmp.compareSuit > max.compareSuit) {\n                        max = tmp;\n                        winner = i;\n                    }\n                }\n            }\n        }\n\n        return IDToGames[_gameID].playersID[winner];\n    }\n\n    function _evaluateHand(Player storage _player) private view returns(EvaluateHand) {\n        uint8[NUMBER_OF_SUIT] memory suit_match = [0, 0, 0, 0];\n        uint8[NUMBER_OF_PIP] memory pip_match = [0, 0, 0, 0, 0, 0, 0];\n        int8[NUMBER_OF_HANDCARD] memory retOrder = [-1, -1, -1, -1, -1];\n        int8[2] memory pairs = [-1, -1];\n        int8 compareSuit = -1;\n        HandEnum handValue = HandEnum.Zilch;\n        mapping(uint256 => Card) _handCard = _player.handCard;\n\n        for (uint256 i = 0; i < NUMBER_OF_HANDCARD; i++) {\n            suit_match[uint8(_handCard[i].suit)] = uint8(suit_match[uint8(_handCard[i].suit)].add(1));\n            pip_match[uint8(_handCard[i].value)] = uint8(pip_match[uint8(_handCard[i].value)].add(1));\n\n            if (pip_match[uint8(_handCard[i].value)] == 4) {\n                handValue = HandEnum.FourOfAKind;\n                return EvaluateHand(handValue, retOrder, compareSuit);\n            }\n            else if (pip_match[uint8(_handCard[i].value)] == 3) {\n                handValue = HandEnum.ThreeOfAKind;\n                retOrder[0] = int8(_handCard[i].value);\n            }\n            else if (pip_match[uint8(_handCard[i].value)] == 2) {\n                if (pairs[0] == -1) {\n                    pairs[0] = int8(_handCard[i].value);\n                }\n                else {\n                    pairs[1] = int8(_handCard[i].value);\n                }\n            }\n        }\n\n        if (suit_match[uint8(_handCard[0].suit)] == 5) {\n            if (uint8(_handCard[4].value).sub(uint8(_handCard[0].value)) == 4) {\n                handValue = HandEnum.StraightFlush;\n                retOrder[0] = int8(_handCard[4].value);\n            }\n            else {\n                handValue = HandEnum.Flush;\n                for (i = 0; i < NUMBER_OF_HANDCARD; i++) {\n                    retOrder[i] = int8(_handCard[4-i].value);\n                }\n            }\n            compareSuit = int8(_handCard[4].suit);\n        }\n        else if (handValue == HandEnum.ThreeOfAKind) {\n            if (pairs[1] != -1) {\n                handValue = HandEnum.FullHouse;\n            }\n        }\n        else{\n            if (pairs[0] == -1) {\n                if (uint8(_handCard[4].value).sub(uint8(_handCard[0].value)) == 4) {\n                    handValue = HandEnum.Straight;\n                    retOrder[0] = int8(_handCard[4].value);\n                }\n                else {\n                    for (i = 0; i < NUMBER_OF_HANDCARD; i++) {\n                        retOrder[i] = int8(_handCard[4-i].value);\n                    }\n                }\n                compareSuit = int8(_handCard[4].suit);\n            }\n            // pair or two pair\n            else {\n                if (pairs[1] != -1) {\n                    handValue = HandEnum.TwoPair;\n                    if (pairs[0] > pairs[1]) {\n                        retOrder[0] = pairs[0];\n                        retOrder[1] = pairs[1];\n                    }\n                    else {\n                        retOrder[0] = pairs[1];\n                        retOrder[1] = pairs[0];\n                    }\n                    for (i = 0 ; i < NUMBER_OF_HANDCARD ; i++) {\n                        if (int8(_handCard[i].value) != pairs[0] && int8(_handCard[i].value) != pairs[1]) {\n                            retOrder[2] = int8(_handCard[i].value);\n                        }\n                        else if (int8(_handCard[i].value) == pairs[0]) {\n                            compareSuit = int8(_handCard[i].suit);\n                        }\n                    }\n                }\n                else {\n                    handValue = HandEnum.OnePair;\n                    retOrder[0] = pairs[0];\n                    uint256 j = 3;\n                    for (i = 0; i < NUMBER_OF_HANDCARD; i++) {\n                        if (int8(_handCard[i].value) != pairs[0]) {\n                            retOrder[j] = int8(_handCard[i].value);\n                            j = j.sub(1);\n                        }\n                        else {\n                            compareSuit = int8(_handCard[i].suit);\n                        }\n                    }\n                }\n            }\n        }\n        return EvaluateHand(handValue, retOrder, compareSuit);\n    }\n\n    function _distributionEther(uint256 _winnerPlayer, uint256 avgEther) private onlyOwner {\n        for (uint256 i = 0; i < IDToPlayers[_winnerPlayer].bettorLength; i++) {\n            IDToPlayers[_winnerPlayer].bettor[i].transfer(avgEther);\n        }\n    }\n\n    function adminWithdraw(uint256 _withdrawNumber) public onlyOwner {\n        require(adminEtherBalance >= _withdrawNumber);\n        adminEtherBalance.sub(_withdrawNumber);\n        msg.sender.transfer(_withdrawNumber);\n    }\n}",
  "sourcePath": "/Users/hank/Desktop/CS/Blockchain/TCI/Magic/contracts/InfinityGame.sol",
  "compiler": {
    "name": "solc",
    "version": "0.4.24+commit.e67f0147.Emscripten.clang"
  },
  "schemaVersion": "3.0.16",
  "updatedAt": "2020-01-02T00:09:57.466Z",
  "devdoc": {
    "methods": {
      "claimOwnership()": {
        "details": "Allows the pendingOwner address to finalize the transfer."
      },
      "pause()": {
        "details": "called by the owner to pause, triggers stopped state"
      },
      "renounceOwnership()": {
        "details": "Allows the current owner to relinquish control of the contract."
      },
      "transferOwnership(address)": {
        "details": "Allows the current owner to set the pendingOwner address.",
        "params": {
          "newOwner": "The address to transfer ownership to."
        }
      },
      "unpause()": {
        "details": "called by the owner to unpause, returns to normal state"
      }
    }
  },
  "userdoc": {
    "methods": {
      "renounceOwnership()": {
        "notice": "Renouncing to ownership will leave the contract without an owner. It will not be possible to call the functions with the `onlyOwner` modifier anymore."
      }
    }
  }
}