{
  "contractName": "Magic",
  "abi": [
    {
      "constant": true,
      "inputs": [
        {
          "name": "",
          "type": "address"
        }
      ],
      "name": "audience",
      "outputs": [
        {
          "name": "donation",
          "type": "uint256"
        }
      ],
      "payable": false,
      "stateMutability": "view",
      "type": "function"
    },
    {
      "constant": true,
      "inputs": [],
      "name": "cooldownTime",
      "outputs": [
        {
          "name": "",
          "type": "uint256"
        }
      ],
      "payable": false,
      "stateMutability": "view",
      "type": "function"
    },
    {
      "constant": true,
      "inputs": [],
      "name": "magician",
      "outputs": [
        {
          "name": "",
          "type": "address"
        }
      ],
      "payable": false,
      "stateMutability": "view",
      "type": "function"
    },
    {
      "inputs": [],
      "payable": true,
      "stateMutability": "payable",
      "type": "constructor"
    },
    {
      "constant": false,
      "inputs": [],
      "name": "donate",
      "outputs": [],
      "payable": true,
      "stateMutability": "payable",
      "type": "function"
    },
    {
      "constant": true,
      "inputs": [
        {
          "name": "_audience",
          "type": "address"
        }
      ],
      "name": "getDonation",
      "outputs": [
        {
          "name": "",
          "type": "uint256"
        }
      ],
      "payable": false,
      "stateMutability": "view",
      "type": "function"
    },
    {
      "constant": true,
      "inputs": [
        {
          "name": "_type",
          "type": "uint256"
        }
      ],
      "name": "getCooldownTime",
      "outputs": [
        {
          "name": "",
          "type": "uint32"
        }
      ],
      "payable": false,
      "stateMutability": "view",
      "type": "function"
    }
  ],
  "bytecode": "0x608060405262015180600155336000806101000a81548173ffffffffffffffffffffffffffffffffffffffff021916908373ffffffffffffffffffffffffffffffffffffffff1602179055506103908061005a6000396000f3fe6080604052600436106100555760003560e01c8063161bee471461005a578063410a1d32146100bf578063904144ba14610124578063b319c6b71461017f578063d617b9a2146101aa578063ed88c68e14610201575b600080fd5b34801561006657600080fd5b506100a96004803603602081101561007d57600080fd5b81019080803573ffffffffffffffffffffffffffffffffffffffff16906020019092919050505061020b565b6040518082815260200191505060405180910390f35b3480156100cb57600080fd5b5061010e600480360360208110156100e257600080fd5b81019080803573ffffffffffffffffffffffffffffffffffffffff169060200190929190505050610229565b6040518082815260200191505060405180910390f35b34801561013057600080fd5b5061015d6004803603602081101561014757600080fd5b8101908080359060200190929190505050610275565b604051808263ffffffff1663ffffffff16815260200191505060405180910390f35b34801561018b57600080fd5b506101946102e7565b6040518082815260200191505060405180910390f35b3480156101b657600080fd5b506101bf6102ed565b604051808273ffffffffffffffffffffffffffffffffffffffff1673ffffffffffffffffffffffffffffffffffffffff16815260200191505060405180910390f35b610209610312565b005b60026020528060005260406000206000915090508060000154905081565b6000600260008373ffffffffffffffffffffffffffffffffffffffff1673ffffffffffffffffffffffffffffffffffffffff168152602001908152602001600020600001549050919050565b6000600260003373ffffffffffffffffffffffffffffffffffffffff1673ffffffffffffffffffffffffffffffffffffffff16815260200190815260200160002060010182600481106102c457fe5b600891828204019190066004029054906101000a900463ffffffff169050919050565b60015481565b6000809054906101000a900473ffffffffffffffffffffffffffffffffffffffff1681565b34600260003373ffffffffffffffffffffffffffffffffffffffff1673ffffffffffffffffffffffffffffffffffffffff1681526020019081526020016000206000016000828254019250508190555056fea165627a7a723058202c094c9b9f0ed168d7a14dd93c2258f292237a1cfac5a2021988450d42f423e10029",
  "source": "pragma solidity >=0.4.24 <0.6.0;\n\ncontract Magic {\n\n\taddress payable public magician;\n\tuint public cooldownTime = 1 days;\n\n\tstruct Audiences {\n\t\tuint donation;\n\t\tuint32 [4] cooldown;\n\t}\n\n\tmapping (address=>Audiences) public audience;\n\n\tconstructor() payable public {\n\t\tmagician = msg.sender;\n\t}\n\n\tmodifier checkEnoughDonation(uint _price) {\n\t\trequire(audience[msg.sender].donation >= _price);\n\t\t_;\n\t}\n\n\tmodifier checkCoolDown(uint _type) {\t\n\t\trequire(audience[msg.sender].cooldown[_type] <= now);\n\t\t_;\n\t}\n\n\tfunction donate() payable public {\n      \taudience[msg.sender].donation+=msg.value;\n  \t}\n\n  \tfunction getDonation(address _audience) public view returns(uint){\n  \t\treturn audience[_audience].donation;\n  \t}\n\n  \tfunction getCooldownTime(uint _type) public view returns(uint32){\n\t\treturn audience[msg.sender].cooldown[_type];\n\t}\n\n  \tfunction _triggerCooldown(uint _type) internal {\n  \t\taudience[msg.sender].cooldown[_type] += uint32(now + cooldownTime);\n  \t}\n}",
  "sourcePath": "/Users/hank/Desktop/CS/Blockchain/TCI/Magic/contracts/Magic.sol",
  "compiler": {
    "name": "solc",
    "version": "0.5.8+commit.23d335f2.Emscripten.clang"
  },
  "schemaVersion": "3.0.16",
  "updatedAt": "2020-01-01T22:48:57.908Z",
  "devdoc": {
    "methods": {}
  },
  "userdoc": {
    "methods": {}
  }
}