{
  "contractName": "MagicAct",
  "abi": [
    {
      "constant": true,
      "inputs": [
        {
          "name": "",
          "type": "address"
        }
      ],
      "name": "audience",
      "outputs": [
        {
          "name": "donation",
          "type": "uint256"
        }
      ],
      "payable": false,
      "stateMutability": "view",
      "type": "function"
    },
    {
      "constant": true,
      "inputs": [
        {
          "name": "_audience",
          "type": "address"
        }
      ],
      "name": "getDonation",
      "outputs": [
        {
          "name": "",
          "type": "uint256"
        }
      ],
      "payable": false,
      "stateMutability": "view",
      "type": "function"
    },
    {
      "constant": true,
      "inputs": [
        {
          "name": "_type",
          "type": "uint256"
        }
      ],
      "name": "getCooldownTime",
      "outputs": [
        {
          "name": "",
          "type": "uint32"
        }
      ],
      "payable": false,
      "stateMutability": "view",
      "type": "function"
    },
    {
      "constant": true,
      "inputs": [],
      "name": "cooldownTime",
      "outputs": [
        {
          "name": "",
          "type": "uint256"
        }
      ],
      "payable": false,
      "stateMutability": "view",
      "type": "function"
    },
    {
      "constant": true,
      "inputs": [],
      "name": "magician",
      "outputs": [
        {
          "name": "",
          "type": "address"
        }
      ],
      "payable": false,
      "stateMutability": "view",
      "type": "function"
    },
    {
      "constant": false,
      "inputs": [],
      "name": "donate",
      "outputs": [],
      "payable": true,
      "stateMutability": "payable",
      "type": "function"
    },
    {
      "anonymous": false,
      "inputs": [
        {
          "indexed": false,
          "name": "_type",
          "type": "uint256"
        }
      ],
      "name": "Act",
      "type": "event"
    },
    {
      "constant": false,
      "inputs": [
        {
          "name": "_type",
          "type": "uint256"
        }
      ],
      "name": "act",
      "outputs": [],
      "payable": false,
      "stateMutability": "nonpayable",
      "type": "function"
    },
    {
      "constant": false,
      "inputs": [
        {
          "name": "_type",
          "type": "uint256"
        }
      ],
      "name": "freeAct",
      "outputs": [],
      "payable": false,
      "stateMutability": "nonpayable",
      "type": "function"
    },
    {
      "constant": false,
      "inputs": [
        {
          "name": "_type",
          "type": "uint256"
        }
      ],
      "name": "payMagician",
      "outputs": [],
      "payable": true,
      "stateMutability": "payable",
      "type": "function"
    }
  ],
  "bytecode": "0x608060405262015180600155336000806101000a81548173ffffffffffffffffffffffffffffffffffffffff021916908373ffffffffffffffffffffffffffffffffffffffff1602179055506107a08061005a6000396000f3fe6080604052600436106100865760003560e01c8063b319c6b711610059578063b319c6b7146101de578063c0fff66714610209578063c9ee7e0214610244578063d617b9a21461027f578063ed88c68e146102d657610086565b80630753718b1461008b578063161bee47146100b9578063410a1d321461011e578063904144ba14610183575b600080fd5b6100b7600480360360208110156100a157600080fd5b81019080803590602001909291905050506102e0565b005b3480156100c557600080fd5b50610108600480360360208110156100dc57600080fd5b81019080803573ffffffffffffffffffffffffffffffffffffffff1690602001909291905050506103ab565b6040518082815260200191505060405180910390f35b34801561012a57600080fd5b5061016d6004803603602081101561014157600080fd5b81019080803573ffffffffffffffffffffffffffffffffffffffff1690602001909291905050506103c9565b6040518082815260200191505060405180910390f35b34801561018f57600080fd5b506101bc600480360360208110156101a657600080fd5b8101908080359060200190929190505050610415565b604051808263ffffffff1663ffffffff16815260200191505060405180910390f35b3480156101ea57600080fd5b506101f3610487565b6040518082815260200191505060405180910390f35b34801561021557600080fd5b506102426004803603602081101561022c57600080fd5b810190808035906020019092919050505061048d565b005b34801561025057600080fd5b5061027d6004803603602081101561026757600080fd5b810190808035906020019092919050505061054d565b005b34801561028b57600080fd5b5061029461066a565b604051808273ffffffffffffffffffffffffffffffffffffffff1673ffffffffffffffffffffffffffffffffffffffff16815260200191505060405180910390f35b6102de61068f565b005b600067016345785d8a0000820290506000809054906101000a900473ffffffffffffffffffffffffffffffffffffffff1673ffffffffffffffffffffffffffffffffffffffff166108fc829081150290604051600060405180830381858888f19350505050158015610356573d6000803e3d6000fd5b5080600260003373ffffffffffffffffffffffffffffffffffffffff1673ffffffffffffffffffffffffffffffffffffffff168152602001908152602001600020600001600082825403925050819055505050565b60026020528060005260406000206000915090508060000154905081565b6000600260008373ffffffffffffffffffffffffffffffffffffffff1673ffffffffffffffffffffffffffffffffffffffff168152602001908152602001600020600001549050919050565b6000600260003373ffffffffffffffffffffffffffffffffffffffff1673ffffffffffffffffffffffffffffffffffffffff168152602001908152602001600020600101826004811061046457fe5b600891828204019190066004029054906101000a900463ffffffff169050919050565b60015481565b8042600260003373ffffffffffffffffffffffffffffffffffffffff1673ffffffffffffffffffffffffffffffffffffffff16815260200190815260200160002060010182600481106104dc57fe5b600891828204019190066004029054906101000a900463ffffffff1663ffffffff16111561050957600080fd5b610512826106e1565b7fd4c0b421ef6f70d95d5d580b037f717778cad0548663f8ce5231d4797d2cb9ba826040518082815260200191505060405180910390a15050565b6064810280600260003373ffffffffffffffffffffffffffffffffffffffff1673ffffffffffffffffffffffffffffffffffffffff1681526020019081526020016000206000015410156105a057600080fd5b8142600260003373ffffffffffffffffffffffffffffffffffffffff1673ffffffffffffffffffffffffffffffffffffffff16815260200190815260200160002060010182600481106105ef57fe5b600891828204019190066004029054906101000a900463ffffffff1663ffffffff16111561061c57600080fd5b610625836106e1565b61062e836102e0565b7fd4c0b421ef6f70d95d5d580b037f717778cad0548663f8ce5231d4797d2cb9ba836040518082815260200191505060405180910390a1505050565b6000809054906101000a900473ffffffffffffffffffffffffffffffffffffffff1681565b34600260003373ffffffffffffffffffffffffffffffffffffffff1673ffffffffffffffffffffffffffffffffffffffff16815260200190815260200160002060000160008282540192505081905550565b6001544201600260003373ffffffffffffffffffffffffffffffffffffffff1673ffffffffffffffffffffffffffffffffffffffff168152602001908152602001600020600101826004811061073357fe5b600891828204019190066004028282829054906101000a900463ffffffff160192506101000a81548163ffffffff021916908363ffffffff1602179055505056fea165627a7a723058200c31e56d99b50b09f8316e890ad3af405bccb85e9372028ceaeb1e756a6a73c20029",
  "source": "pragma solidity >=0.4.24 <0.6.0;\n\nimport \"./Magic.sol\";\n\ncontract MagicAct is Magic {\n\n\tevent Act(uint _type);\n \n\t// type 1: Card trick, 2:Party show, 3: Stage magic, 4: Illution\n\tfunction act(uint _type) public checkEnoughDonation(_type*100) checkCoolDown(_type) {\n\t\t_triggerCooldown(_type);\n\t\tpayMagician(_type);\n\t\temit Act(_type);\n\t}\n\n\tfunction freeAct(uint _type) public checkCoolDown(_type) {\n\t\t_triggerCooldown(_type);\n\t\temit Act(_type);\n\t}\n\n  \tfunction payMagician(uint _type) public payable{\n  \t\tuint charge=_type*100 finney;\n  \t\tmagician.transfer(charge);\n  \t\taudience[msg.sender].donation-=charge;\n  \t}\n}\n",
  "sourcePath": "/Users/hank/Desktop/CS/Blockchain/TCI/Magic/contracts/MagicAct.sol",
  "compiler": {
    "name": "solc",
    "version": "0.5.8+commit.23d335f2.Emscripten.clang"
  },
  "schemaVersion": "3.0.16",
  "updatedAt": "2020-01-01T22:48:57.912Z",
  "devdoc": {
    "methods": {}
  },
  "userdoc": {
    "methods": {}
  }
}