{
  "contractName": "Base",
  "abi": [
    {
      "constant": true,
      "inputs": [],
      "name": "houseFee",
      "outputs": [
        {
          "name": "",
          "type": "uint256"
        }
      ],
      "payable": false,
      "stateMutability": "view",
      "type": "function"
    },
    {
      "constant": true,
      "inputs": [
        {
          "name": "",
          "type": "uint256"
        }
      ],
      "name": "cardArray",
      "outputs": [
        {
          "name": "",
          "type": "uint8"
        }
      ],
      "payable": false,
      "stateMutability": "view",
      "type": "function"
    },
    {
      "constant": true,
      "inputs": [],
      "name": "minimumPoolBalance",
      "outputs": [
        {
          "name": "",
          "type": "uint256"
        }
      ],
      "payable": false,
      "stateMutability": "view",
      "type": "function"
    },
    {
      "constant": true,
      "inputs": [
        {
          "name": "",
          "type": "uint256"
        }
      ],
      "name": "IDToPlayers",
      "outputs": [
        {
          "name": "playerID",
          "type": "uint256"
        },
        {
          "name": "handCardLength",
          "type": "uint256"
        },
        {
          "name": "bettorLength",
          "type": "uint256"
        }
      ],
      "payable": false,
      "stateMutability": "view",
      "type": "function"
    },
    {
      "constant": true,
      "inputs": [],
      "name": "randomnessContract",
      "outputs": [
        {
          "name": "",
          "type": "address"
        }
      ],
      "payable": false,
      "stateMutability": "view",
      "type": "function"
    },
    {
      "constant": false,
      "inputs": [],
      "name": "claimOwnership",
      "outputs": [],
      "payable": false,
      "stateMutability": "nonpayable",
      "type": "function"
    },
    {
      "constant": true,
      "inputs": [],
      "name": "NUMBER_OF_PIP",
      "outputs": [
        {
          "name": "",
          "type": "uint256"
        }
      ],
      "payable": false,
      "stateMutability": "view",
      "type": "function"
    },
    {
      "constant": false,
      "inputs": [],
      "name": "renounceOwnership",
      "outputs": [],
      "payable": false,
      "stateMutability": "nonpayable",
      "type": "function"
    },
    {
      "constant": true,
      "inputs": [],
      "name": "NUMBER_OF_PLAYER",
      "outputs": [
        {
          "name": "",
          "type": "uint256"
        }
      ],
      "payable": false,
      "stateMutability": "view",
      "type": "function"
    },
    {
      "constant": true,
      "inputs": [],
      "name": "adminEtherBalance",
      "outputs": [
        {
          "name": "",
          "type": "uint256"
        }
      ],
      "payable": false,
      "stateMutability": "view",
      "type": "function"
    },
    {
      "constant": true,
      "inputs": [],
      "name": "owner",
      "outputs": [
        {
          "name": "",
          "type": "address"
        }
      ],
      "payable": false,
      "stateMutability": "view",
      "type": "function"
    },
    {
      "constant": true,
      "inputs": [],
      "name": "NUMBER_OF_TOTAL_CARDS",
      "outputs": [
        {
          "name": "",
          "type": "uint256"
        }
      ],
      "payable": false,
      "stateMutability": "view",
      "type": "function"
    },
    {
      "constant": true,
      "inputs": [],
      "name": "NUMBER_OF_SUIT",
      "outputs": [
        {
          "name": "",
          "type": "uint256"
        }
      ],
      "payable": false,
      "stateMutability": "view",
      "type": "function"
    },
    {
      "constant": true,
      "inputs": [
        {
          "name": "",
          "type": "uint256"
        }
      ],
      "name": "IDToGames",
      "outputs": [
        {
          "name": "gameID",
          "type": "uint256"
        },
        {
          "name": "playersLength",
          "type": "uint256"
        },
        {
          "name": "deckLength",
          "type": "uint256"
        },
        {
          "name": "dealedNumber",
          "type": "uint256"
        },
        {
          "name": "endTime",
          "type": "uint256"
        }
      ],
      "payable": false,
      "stateMutability": "view",
      "type": "function"
    },
    {
      "constant": true,
      "inputs": [],
      "name": "timeOfAGame",
      "outputs": [
        {
          "name": "",
          "type": "uint256"
        }
      ],
      "payable": false,
      "stateMutability": "view",
      "type": "function"
    },
    {
      "constant": true,
      "inputs": [],
      "name": "NUMBER_OF_HANDCARD",
      "outputs": [
        {
          "name": "",
          "type": "uint256"
        }
      ],
      "payable": false,
      "stateMutability": "view",
      "type": "function"
    },
    {
      "constant": true,
      "inputs": [],
      "name": "pendingOwner",
      "outputs": [
        {
          "name": "",
          "type": "address"
        }
      ],
      "payable": false,
      "stateMutability": "view",
      "type": "function"
    },
    {
      "constant": false,
      "inputs": [
        {
          "name": "newOwner",
          "type": "address"
        }
      ],
      "name": "transferOwnership",
      "outputs": [],
      "payable": false,
      "stateMutability": "nonpayable",
      "type": "function"
    },
    {
      "constant": true,
      "inputs": [],
      "name": "playerLimit",
      "outputs": [
        {
          "name": "",
          "type": "uint256"
        }
      ],
      "payable": false,
      "stateMutability": "view",
      "type": "function"
    },
    {
      "anonymous": false,
      "inputs": [
        {
          "indexed": true,
          "name": "previousOwner",
          "type": "address"
        }
      ],
      "name": "OwnershipRenounced",
      "type": "event"
    },
    {
      "anonymous": false,
      "inputs": [
        {
          "indexed": true,
          "name": "previousOwner",
          "type": "address"
        },
        {
          "indexed": true,
          "name": "newOwner",
          "type": "address"
        }
      ],
      "name": "OwnershipTransferred",
      "type": "event"
    },
    {
      "constant": true,
      "inputs": [
        {
          "name": "_gameID",
          "type": "uint256"
        }
      ],
      "name": "getGameFundPool",
      "outputs": [
        {
          "name": "",
          "type": "uint256"
        }
      ],
      "payable": false,
      "stateMutability": "view",
      "type": "function"
    },
    {
      "constant": false,
      "inputs": [
        {
          "name": "_newLimit",
          "type": "uint256"
        }
      ],
      "name": "setPlayerLimit",
      "outputs": [],
      "payable": false,
      "stateMutability": "nonpayable",
      "type": "function"
    },
    {
      "constant": false,
      "inputs": [
        {
          "name": "_newHouseFee",
          "type": "uint256"
        }
      ],
      "name": "setHouseFee",
      "outputs": [],
      "payable": false,
      "stateMutability": "nonpayable",
      "type": "function"
    },
    {
      "constant": false,
      "inputs": [
        {
          "name": "_newGameTime",
          "type": "uint256"
        }
      ],
      "name": "setTimeOfAGame",
      "outputs": [],
      "payable": false,
      "stateMutability": "nonpayable",
      "type": "function"
    }
  ],
  "bytecode": "0x608060405261038060405190810160405280600060ff168152602001600160ff168152602001600260ff168152602001600360ff168152602001600460ff168152602001600560ff168152602001600660ff168152602001600760ff168152602001600860ff168152602001600960ff168152602001600a60ff168152602001600b60ff168152602001600c60ff168152602001600d60ff168152602001600e60ff168152602001600f60ff168152602001601060ff168152602001601160ff168152602001601260ff168152602001601360ff168152602001601460ff168152602001601560ff168152602001601660ff168152602001601760ff168152602001601860ff168152602001601960ff168152602001601a60ff168152602001601b60ff16815250600290601c610137929190610209565b506101406102a3565b604051809103906000f08015801561015c573d6000803e3d6000fd5b50600360006101000a81548173ffffffffffffffffffffffffffffffffffffffff021916908373ffffffffffffffffffffffffffffffffffffffff16021790555067016345785d8a00006004556706f05b59d3b200006005556000600655600a60075560b4600855336000806101000a81548173ffffffffffffffffffffffffffffffffffffffff021916908373ffffffffffffffffffffffffffffffffffffffff1602179055506102e4565b82601c601f016020900481019282156102925791602002820160005b8382111561026357835183826101000a81548160ff021916908360ff1602179055509260200192600101602081600001049283019260010302610225565b80156102905782816101000a81549060ff0219169055600101602081600001049283019260010302610263565b505b50905061029f91906102b4565b5090565b60405161078f806200112983390190565b6102e191905b808211156102dd57600081816101000a81549060ff0219169055506001016102ba565b5090565b90565b610e3580620002f46000396000f300608060405260043610610133576000357c0100000000000000000000000000000000000000000000000000000000900463ffffffff1680630ed469b8146101385780631167cdc7146101635780631439bf4b1461018c5780631f5ca1dc146101c95780633153d14c146101f457806341fe39ec146102335780634e71e0c81461025e5780635a09f2f4146102755780635a572d9e1461029e578063715018a6146102c9578063793e1210146102e05780637eb32d3b1461030b5780638da5cb5b146103365780638f8133ee1461036157806393ec53601461038c57806398b59405146103b7578063bf15e64c146103f8578063bf719efb14610421578063cf87b0071461045e578063d663540314610489578063e30c3978146104b4578063f2fde38b146104df578063f8bb7ec214610508575b600080fd5b34801561014457600080fd5b5061014d610533565b60405161015a9190610cc8565b60405180910390f35b34801561016f57600080fd5b5061018a60048036036101859190810190610c2d565b610539565b005b34801561019857600080fd5b506101b360048036036101ae9190810190610c2d565b61059e565b6040516101c09190610d6d565b60405180910390f35b3480156101d557600080fd5b506101de6105c7565b6040516101eb9190610cc8565b60405180910390f35b34801561020057600080fd5b5061021b60048036036102169190810190610c2d565b6105cd565b60405161022a93929190610ce3565b60405180910390f35b34801561023f57600080fd5b506102486105f7565b6040516102559190610cad565b60405180910390f35b34801561026a57600080fd5b5061027361061d565b005b34801561028157600080fd5b5061029c60048036036102979190810190610c2d565b6107bc565b005b3480156102aa57600080fd5b506102b3610821565b6040516102c09190610cc8565b60405180910390f35b3480156102d557600080fd5b506102de610826565b005b3480156102ec57600080fd5b506102f5610928565b6040516103029190610cc8565b60405180910390f35b34801561031757600080fd5b5061032061092d565b60405161032d9190610cc8565b60405180910390f35b34801561034257600080fd5b5061034b610933565b6040516103589190610c92565b60405180910390f35b34801561036d57600080fd5b50610376610958565b6040516103839190610cc8565b60405180910390f35b34801561039857600080fd5b506103a161095d565b6040516103ae9190610cc8565b60405180910390f35b3480156103c357600080fd5b506103de60048036036103d99190810190610c2d565b610962565b6040516103ef959493929190610d1a565b60405180910390f35b34801561040457600080fd5b5061041f600480360361041a9190810190610c2d565b610998565b005b34801561042d57600080fd5b5061044860048036036104439190810190610c2d565b6109fd565b6040516104559190610cc8565b60405180910390f35b34801561046a57600080fd5b50610473610a63565b6040516104809190610cc8565b60405180910390f35b34801561049557600080fd5b5061049e610a69565b6040516104ab9190610cc8565b60405180910390f35b3480156104c057600080fd5b506104c9610a6e565b6040516104d69190610c92565b60405180910390f35b3480156104eb57600080fd5b5061050660048036036105019190810190610c04565b610a94565b005b34801561051457600080fd5b5061051d610b33565b60405161052a9190610cc8565b60405180910390f35b60075481565b6000809054906101000a900473ffffffffffffffffffffffffffffffffffffffff1673ffffffffffffffffffffffffffffffffffffffff163373ffffffffffffffffffffffffffffffffffffffff1614151561059457600080fd5b8060088190555050565b600281601c811015156105ad57fe5b60209182820401919006915054906101000a900460ff1681565b60055481565b600a6020528060005260406000206000915090508060000154908060020154908060040154905083565b600360009054906101000a900473ffffffffffffffffffffffffffffffffffffffff1681565b600160009054906101000a900473ffffffffffffffffffffffffffffffffffffffff1673ffffffffffffffffffffffffffffffffffffffff163373ffffffffffffffffffffffffffffffffffffffff1614151561067957600080fd5b600160009054906101000a900473ffffffffffffffffffffffffffffffffffffffff1673ffffffffffffffffffffffffffffffffffffffff166000809054906101000a900473ffffffffffffffffffffffffffffffffffffffff1673ffffffffffffffffffffffffffffffffffffffff167f8be0079c531659141344cd1fd0a4f28419497f9722a3daafe3b4186f6b6457e060405160405180910390a3600160009054906101000a900473ffffffffffffffffffffffffffffffffffffffff166000806101000a81548173ffffffffffffffffffffffffffffffffffffffff021916908373ffffffffffffffffffffffffffffffffffffffff1602179055506000600160006101000a81548173ffffffffffffffffffffffffffffffffffffffff021916908373ffffffffffffffffffffffffffffffffffffffff160217905550565b6000809054906101000a900473ffffffffffffffffffffffffffffffffffffffff1673ffffffffffffffffffffffffffffffffffffffff163373ffffffffffffffffffffffffffffffffffffffff1614151561081757600080fd5b8060078190555050565b600781565b6000809054906101000a900473ffffffffffffffffffffffffffffffffffffffff1673ffffffffffffffffffffffffffffffffffffffff163373ffffffffffffffffffffffffffffffffffffffff1614151561088157600080fd5b6000809054906101000a900473ffffffffffffffffffffffffffffffffffffffff1673ffffffffffffffffffffffffffffffffffffffff167ff8df31144d9c2f0f6b59d69b8b98abd5459d07f2742c4df920b25aae33c6482060405160405180910390a260008060006101000a81548173ffffffffffffffffffffffffffffffffffffffff021916908373ffffffffffffffffffffffffffffffffffffffff160217905550565b600581565b60065481565b6000809054906101000a900473ffffffffffffffffffffffffffffffffffffffff1681565b601c81565b600481565b60096020528060005260406000206000915090508060000154908060020154908060040154908060050154908060060154905085565b6000809054906101000a900473ffffffffffffffffffffffffffffffffffffffff1673ffffffffffffffffffffffffffffffffffffffff163373ffffffffffffffffffffffffffffffffffffffff161415156109f357600080fd5b8060048190555050565b6000806000809150600090505b6005811015610a4257610a33610a208583610b39565b6004015483610b7d90919063ffffffff16565b91508080600101915050610a0a565b610a5760045483610b9e90919063ffffffff16565b91508192505050919050565b60085481565b600581565b600160009054906101000a900473ffffffffffffffffffffffffffffffffffffffff1681565b6000809054906101000a900473ffffffffffffffffffffffffffffffffffffffff1673ffffffffffffffffffffffffffffffffffffffff163373ffffffffffffffffffffffffffffffffffffffff16141515610aef57600080fd5b80600160006101000a81548173ffffffffffffffffffffffffffffffffffffffff021916908373ffffffffffffffffffffffffffffffffffffffff16021790555050565b60045481565b6000600a6000600960008681526020019081526020016000206001016000858152602001908152602001600020548152602001908152602001600020905092915050565b6000808284019050838110151515610b9457600080fd5b8091505092915050565b6000806000841415610bb35760009150610bd5565b8284029050828482811515610bc457fe5b04141515610bd157600080fd5b8091505b5092915050565b6000610be88235610dbf565b905092915050565b6000610bfc8235610ddf565b905092915050565b600060208284031215610c1657600080fd5b6000610c2484828501610bdc565b91505092915050565b600060208284031215610c3f57600080fd5b6000610c4d84828501610bf0565b91505092915050565b610c5f81610d88565b82525050565b610c6e81610de9565b82525050565b610c7d81610da8565b82525050565b610c8c81610db2565b82525050565b6000602082019050610ca76000830184610c56565b92915050565b6000602082019050610cc26000830184610c65565b92915050565b6000602082019050610cdd6000830184610c74565b92915050565b6000606082019050610cf86000830186610c74565b610d056020830185610c74565b610d126040830184610c74565b949350505050565b600060a082019050610d2f6000830188610c74565b610d3c6020830187610c74565b610d496040830186610c74565b610d566060830185610c74565b610d636080830184610c74565b9695505050505050565b6000602082019050610d826000830184610c83565b92915050565b600073ffffffffffffffffffffffffffffffffffffffff82169050919050565b6000819050919050565b600060ff82169050919050565b600073ffffffffffffffffffffffffffffffffffffffff82169050919050565b6000819050919050565b6000610df482610d88565b90509190505600a265627a7a72305820d42dbf777ac858e377e65140767304de6ece02401ce3d2c5fefe1a86bb2faac16c6578706572696d656e74616cf5003760806040527f68d8add98e690000000000000000000000000000000000000000000000000000600290600019169055336000806101000a81548173ffffffffffffffffffffffffffffffffffffffff021916908373ffffffffffffffffffffffffffffffffffffffff1602179055506107128061007d6000396000f300608060405260043610610078576000357c0100000000000000000000000000000000000000000000000000000000900463ffffffff1680634e71e0c81461007d578063715018a6146100945780638da5cb5b146100ab578063e30c397814610102578063f2fde38b14610159578063f3be76261461019c575b600080fd5b34801561008957600080fd5b506100926101e9565b005b3480156100a057600080fd5b506100a9610388565b005b3480156100b757600080fd5b506100c061048a565b604051808273ffffffffffffffffffffffffffffffffffffffff1673ffffffffffffffffffffffffffffffffffffffff16815260200191505060405180910390f35b34801561010e57600080fd5b506101176104af565b604051808273ffffffffffffffffffffffffffffffffffffffff1673ffffffffffffffffffffffffffffffffffffffff16815260200191505060405180910390f35b34801561016557600080fd5b5061019a600480360381019080803573ffffffffffffffffffffffffffffffffffffffff1690602001909291905050506104d5565b005b3480156101a857600080fd5b506101cb6004803603810190808035600019169060200190929190505050610574565b60405180826000191660001916815260200191505060405180910390f35b600160009054906101000a900473ffffffffffffffffffffffffffffffffffffffff1673ffffffffffffffffffffffffffffffffffffffff163373ffffffffffffffffffffffffffffffffffffffff1614151561024557600080fd5b600160009054906101000a900473ffffffffffffffffffffffffffffffffffffffff1673ffffffffffffffffffffffffffffffffffffffff166000809054906101000a900473ffffffffffffffffffffffffffffffffffffffff1673ffffffffffffffffffffffffffffffffffffffff167f8be0079c531659141344cd1fd0a4f28419497f9722a3daafe3b4186f6b6457e060405160405180910390a3600160009054906101000a900473ffffffffffffffffffffffffffffffffffffffff166000806101000a81548173ffffffffffffffffffffffffffffffffffffffff021916908373ffffffffffffffffffffffffffffffffffffffff1602179055506000600160006101000a81548173ffffffffffffffffffffffffffffffffffffffff021916908373ffffffffffffffffffffffffffffffffffffffff160217905550565b6000809054906101000a900473ffffffffffffffffffffffffffffffffffffffff1673ffffffffffffffffffffffffffffffffffffffff163373ffffffffffffffffffffffffffffffffffffffff161415156103e357600080fd5b6000809054906101000a900473ffffffffffffffffffffffffffffffffffffffff1673ffffffffffffffffffffffffffffffffffffffff167ff8df31144d9c2f0f6b59d69b8b98abd5459d07f2742c4df920b25aae33c6482060405160405180910390a260008060006101000a81548173ffffffffffffffffffffffffffffffffffffffff021916908373ffffffffffffffffffffffffffffffffffffffff160217905550565b6000809054906101000a900473ffffffffffffffffffffffffffffffffffffffff1681565b600160009054906101000a900473ffffffffffffffffffffffffffffffffffffffff1681565b6000809054906101000a900473ffffffffffffffffffffffffffffffffffffffff1673ffffffffffffffffffffffffffffffffffffffff163373ffffffffffffffffffffffffffffffffffffffff1614151561053057600080fd5b80600160006101000a81548173ffffffffffffffffffffffffffffffffffffffff021916908373ffffffffffffffffffffffffffffffffffffffff16021790555050565b60008060009054906101000a900473ffffffffffffffffffffffffffffffffffffffff1673ffffffffffffffffffffffffffffffffffffffff163373ffffffffffffffffffffffffffffffffffffffff161415156105d157600080fd5b81600260008282541892505081600019169055508160025442446040516020018085600019166000191681526020018460001916600019168152602001838152602001828152602001807fe58fb0e781a3e3818de0a4a8e0a58de0a4a6e0a580ed959cd8add98e4e6f2e3181526020017f203a2920000000000000000000000000000000000000000000000000000000008152506024019450505050506040516020818303038152906040526040518082805190602001908083835b6020831015156106b2578051825260208201915060208101905060208303925061068d565b6001836020036101000a038019825116818451168082178552505050505050905001915050604051809103902090509190505600a165627a7a723058208b48c27fcca166ce64702ddfa3212ef3a1f3f997c62d0974838e87a97da022930029",
  "source": "pragma solidity ^0.4.24;\npragma experimental ABIEncoderV2;\n\nimport \"./openzeppelin-solidity/math/SafeMath.sol\";\nimport \"./openzeppelin-solidity/ownership/Claimable.sol\";\nimport \"./Randomness.sol\";\n\n\ncontract Base is Claimable{\n    using SafeMath for uint256;\n    using SafeMath for uint8;\n\n    uint256 constant public NUMBER_OF_HANDCARD = 5;\n    uint256 constant public NUMBER_OF_PIP = 7;\n    uint256 constant public NUMBER_OF_SUIT = 4;\n    uint256 constant public NUMBER_OF_TOTAL_CARDS = 28;\n    uint256 constant public NUMBER_OF_PLAYER = 5;\n\n    uint8[NUMBER_OF_TOTAL_CARDS] public cardArray = [\n         0,  1,  2,  3,  4,  5,  6,\n         7,  8,  9, 10, 11, 12, 13,\n        14, 15, 16, 17, 18, 19, 20,\n        21, 22, 23, 24, 25, 26, 27\n    ];\n\n    Randomness public randomnessContract = new Randomness();\n    uint256 public playerLimit = 0.1 ether;\n    uint256 public minimumPoolBalance = 0.5 ether;\n    uint256 public adminEtherBalance = 0;\n    uint256 public houseFee = 10; // 10%\n    uint256 public timeOfAGame = 3 minutes;\n\n    enum Suit { Diamond, Club, Heart, Spade }\n    enum Value { Eight, Nine, Ten, Jack, Queen, King, Ace }\n    enum HandEnum { Zilch, OnePair, TwoPair, ThreeOfAKind, Straight, Flush, FullHouse, FourOfAKind, StraightFlush }\n\n    struct Card {\n        Suit suit;\n        Value value;\n    }\n\n    struct Player {\n        uint256 playerID;\n        mapping(uint256 => Card) handCard;\n        uint256 handCardLength;\n        mapping(uint256 => address) bettor;\n        uint256 bettorLength;\n    }\n\n    struct Game {\n        uint256 gameID;\n        mapping(uint256 => uint256) playersID;\n        uint256 playersLength;\n        mapping(uint256 => uint256) deck;\n        uint256 deckLength;\n        uint256 dealedNumber;\n        uint256 endTime;\n    }\n\n    struct EvaluateHand {\n        HandEnum handValue;\n        int8[NUMBER_OF_HANDCARD] compareCardArr;\n        int8 compareSuit;\n    }\n\n    mapping(uint256 => Game) public IDToGames;\n    mapping(uint256 => Player) public IDToPlayers;\n\n    function getPlayerInfoOfAGame(uint256 _gameID, uint256 _playerNum) internal view returns(Player storage) {\n        return IDToPlayers[IDToGames[_gameID].playersID[_playerNum]];\n    }\n\n    function getGameFundPool(uint256 _gameID) public view returns(uint256) {\n        uint256 pool = 0;\n        for (uint256 i = 0; i < NUMBER_OF_PLAYER; i++) {\n            pool = pool.add(getPlayerInfoOfAGame(_gameID, i).bettorLength);\n        }\n        pool = pool.mul(playerLimit);\n        return pool;\n    }\n\n    function setPlayerLimit(uint256 _newLimit) public onlyOwner {\n        playerLimit = _newLimit;\n    }\n\n    function setHouseFee(uint256 _newHouseFee) public onlyOwner {\n        houseFee = _newHouseFee;\n    }\n\n    function setTimeOfAGame(uint256 _newGameTime) public onlyOwner {\n        timeOfAGame = _newGameTime;\n    }\n\n    function _rand(uint256 _num) internal onlyOwner returns(uint256) {\n        return uint256(randomnessContract.rand(\n                keccak256(\n                    abi.encodePacked(\n                        msg.data,\n                        msg.sender,\n                        _num\n                    )\n                )\n            ));\n    }\n}",
  "sourcePath": "/Users/hank/Desktop/CS/Blockchain/TCI/Magic/contracts/Base.sol",
  "compiler": {
    "name": "solc",
    "version": "0.4.24+commit.e67f0147.Emscripten.clang"
  },
  "schemaVersion": "3.0.16",
  "updatedAt": "2020-01-02T08:40:35.239Z",
  "devdoc": {
    "methods": {
      "claimOwnership()": {
        "details": "Allows the pendingOwner address to finalize the transfer."
      },
      "renounceOwnership()": {
        "details": "Allows the current owner to relinquish control of the contract."
      },
      "transferOwnership(address)": {
        "details": "Allows the current owner to set the pendingOwner address.",
        "params": {
          "newOwner": "The address to transfer ownership to."
        }
      }
    }
  },
  "userdoc": {
    "methods": {
      "renounceOwnership()": {
        "notice": "Renouncing to ownership will leave the contract without an owner. It will not be possible to call the functions with the `onlyOwner` modifier anymore."
      }
    }
  }
}