{
  "contractName": "InfinityGame",
  "abi": [
    {
      "constant": true,
      "inputs": [],
      "name": "houseFee",
      "outputs": [
        {
          "name": "",
          "type": "uint256"
        }
      ],
      "payable": false,
      "stateMutability": "view",
      "type": "function"
    },
    {
      "constant": false,
      "inputs": [
        {
          "name": "_newGameTime",
          "type": "uint256"
        }
      ],
      "name": "setTimeOfAGame",
      "outputs": [],
      "payable": false,
      "stateMutability": "nonpayable",
      "type": "function"
    },
    {
      "constant": true,
      "inputs": [
        {
          "name": "",
          "type": "uint256"
        }
      ],
      "name": "cardArray",
      "outputs": [
        {
          "name": "",
          "type": "uint8"
        }
      ],
      "payable": false,
      "stateMutability": "view",
      "type": "function"
    },
    {
      "constant": true,
      "inputs": [],
      "name": "minimumPoolBalance",
      "outputs": [
        {
          "name": "",
          "type": "uint256"
        }
      ],
      "payable": false,
      "stateMutability": "view",
      "type": "function"
    },
    {
      "constant": true,
      "inputs": [
        {
          "name": "",
          "type": "uint256"
        }
      ],
      "name": "IDToPlayers",
      "outputs": [
        {
          "name": "playerID",
          "type": "uint256"
        },
        {
          "name": "handCardLength",
          "type": "uint256"
        },
        {
          "name": "bettorLength",
          "type": "uint256"
        }
      ],
      "payable": false,
      "stateMutability": "view",
      "type": "function"
    },
    {
      "constant": false,
      "inputs": [],
      "name": "unpause",
      "outputs": [],
      "payable": false,
      "stateMutability": "nonpayable",
      "type": "function"
    },
    {
      "constant": true,
      "inputs": [],
      "name": "randomnessContract",
      "outputs": [
        {
          "name": "",
          "type": "address"
        }
      ],
      "payable": false,
      "stateMutability": "view",
      "type": "function"
    },
    {
      "constant": false,
      "inputs": [],
      "name": "claimOwnership",
      "outputs": [],
      "payable": false,
      "stateMutability": "nonpayable",
      "type": "function"
    },
    {
      "constant": false,
      "inputs": [
        {
          "name": "_newHouseFee",
          "type": "uint256"
        }
      ],
      "name": "setHouseFee",
      "outputs": [],
      "payable": false,
      "stateMutability": "nonpayable",
      "type": "function"
    },
    {
      "constant": true,
      "inputs": [],
      "name": "NUMBER_OF_PIP",
      "outputs": [
        {
          "name": "",
          "type": "uint256"
        }
      ],
      "payable": false,
      "stateMutability": "view",
      "type": "function"
    },
    {
      "constant": true,
      "inputs": [],
      "name": "paused",
      "outputs": [
        {
          "name": "",
          "type": "bool"
        }
      ],
      "payable": false,
      "stateMutability": "view",
      "type": "function"
    },
    {
      "constant": false,
      "inputs": [],
      "name": "renounceOwnership",
      "outputs": [],
      "payable": false,
      "stateMutability": "nonpayable",
      "type": "function"
    },
    {
      "constant": true,
      "inputs": [],
      "name": "NUMBER_OF_PLAYER",
      "outputs": [
        {
          "name": "",
          "type": "uint256"
        }
      ],
      "payable": false,
      "stateMutability": "view",
      "type": "function"
    },
    {
      "constant": true,
      "inputs": [],
      "name": "adminEtherBalance",
      "outputs": [
        {
          "name": "",
          "type": "uint256"
        }
      ],
      "payable": false,
      "stateMutability": "view",
      "type": "function"
    },
    {
      "constant": false,
      "inputs": [],
      "name": "pause",
      "outputs": [],
      "payable": false,
      "stateMutability": "nonpayable",
      "type": "function"
    },
    {
      "constant": true,
      "inputs": [],
      "name": "owner",
      "outputs": [
        {
          "name": "",
          "type": "address"
        }
      ],
      "payable": false,
      "stateMutability": "view",
      "type": "function"
    },
    {
      "constant": true,
      "inputs": [],
      "name": "NUMBER_OF_TOTAL_CARDS",
      "outputs": [
        {
          "name": "",
          "type": "uint256"
        }
      ],
      "payable": false,
      "stateMutability": "view",
      "type": "function"
    },
    {
      "constant": true,
      "inputs": [],
      "name": "NUMBER_OF_SUIT",
      "outputs": [
        {
          "name": "",
          "type": "uint256"
        }
      ],
      "payable": false,
      "stateMutability": "view",
      "type": "function"
    },
    {
      "constant": true,
      "inputs": [
        {
          "name": "",
          "type": "uint256"
        }
      ],
      "name": "IDToGames",
      "outputs": [
        {
          "name": "gameID",
          "type": "uint256"
        },
        {
          "name": "playersLength",
          "type": "uint256"
        },
        {
          "name": "deckLength",
          "type": "uint256"
        },
        {
          "name": "dealedNumber",
          "type": "uint256"
        },
        {
          "name": "endTime",
          "type": "uint256"
        }
      ],
      "payable": false,
      "stateMutability": "view",
      "type": "function"
    },
    {
      "constant": false,
      "inputs": [
        {
          "name": "_newLimit",
          "type": "uint256"
        }
      ],
      "name": "setPlayerLimit",
      "outputs": [],
      "payable": false,
      "stateMutability": "nonpayable",
      "type": "function"
    },
    {
      "constant": true,
      "inputs": [
        {
          "name": "_gameID",
          "type": "uint256"
        }
      ],
      "name": "getGameFundPool",
      "outputs": [
        {
          "name": "",
          "type": "uint256"
        }
      ],
      "payable": false,
      "stateMutability": "view",
      "type": "function"
    },
    {
      "constant": true,
      "inputs": [],
      "name": "timeOfAGame",
      "outputs": [
        {
          "name": "",
          "type": "uint256"
        }
      ],
      "payable": false,
      "stateMutability": "view",
      "type": "function"
    },
    {
      "constant": true,
      "inputs": [],
      "name": "NUMBER_OF_HANDCARD",
      "outputs": [
        {
          "name": "",
          "type": "uint256"
        }
      ],
      "payable": false,
      "stateMutability": "view",
      "type": "function"
    },
    {
      "constant": true,
      "inputs": [],
      "name": "pendingOwner",
      "outputs": [
        {
          "name": "",
          "type": "address"
        }
      ],
      "payable": false,
      "stateMutability": "view",
      "type": "function"
    },
    {
      "constant": false,
      "inputs": [
        {
          "name": "newOwner",
          "type": "address"
        }
      ],
      "name": "transferOwnership",
      "outputs": [],
      "payable": false,
      "stateMutability": "nonpayable",
      "type": "function"
    },
    {
      "constant": true,
      "inputs": [],
      "name": "playerLimit",
      "outputs": [
        {
          "name": "",
          "type": "uint256"
        }
      ],
      "payable": false,
      "stateMutability": "view",
      "type": "function"
    },
    {
      "anonymous": false,
      "inputs": [
        {
          "indexed": false,
          "name": "playerID",
          "type": "uint256"
        }
      ],
      "name": "CreatePlayer",
      "type": "event"
    },
    {
      "anonymous": false,
      "inputs": [
        {
          "indexed": false,
          "name": "gameID",
          "type": "uint256"
        }
      ],
      "name": "CreatGame",
      "type": "event"
    },
    {
      "anonymous": false,
      "inputs": [],
      "name": "Pause",
      "type": "event"
    },
    {
      "anonymous": false,
      "inputs": [],
      "name": "Unpause",
      "type": "event"
    },
    {
      "anonymous": false,
      "inputs": [
        {
          "indexed": true,
          "name": "previousOwner",
          "type": "address"
        }
      ],
      "name": "OwnershipRenounced",
      "type": "event"
    },
    {
      "anonymous": false,
      "inputs": [
        {
          "indexed": true,
          "name": "previousOwner",
          "type": "address"
        },
        {
          "indexed": true,
          "name": "newOwner",
          "type": "address"
        }
      ],
      "name": "OwnershipTransferred",
      "type": "event"
    },
    {
      "constant": false,
      "inputs": [
        {
          "name": "_playerID",
          "type": "uint256"
        }
      ],
      "name": "bet",
      "outputs": [],
      "payable": true,
      "stateMutability": "payable",
      "type": "function"
    },
    {
      "constant": false,
      "inputs": [],
      "name": "createGame",
      "outputs": [],
      "payable": false,
      "stateMutability": "nonpayable",
      "type": "function"
    },
    {
      "constant": false,
      "inputs": [
        {
          "name": "_gameID",
          "type": "uint256"
        }
      ],
      "name": "settlementGame",
      "outputs": [],
      "payable": false,
      "stateMutability": "nonpayable",
      "type": "function"
    },
    {
      "constant": true,
      "inputs": [
        {
          "name": "_gameID",
          "type": "uint256"
        }
      ],
      "name": "_whoIsWinner",
      "outputs": [
        {
          "name": "",
          "type": "uint256"
        }
      ],
      "payable": false,
      "stateMutability": "view",
      "type": "function"
    },
    {
      "constant": false,
      "inputs": [
        {
          "name": "_withdrawNumber",
          "type": "uint256"
        }
      ],
      "name": "adminWithdraw",
      "outputs": [],
      "payable": false,
      "stateMutability": "nonpayable",
      "type": "function"
    }
  ],
  "bytecode": "0x608060405261038060405190810160405280600060ff168152602001600160ff168152602001600260ff168152602001600360ff168152602001600460ff168152602001600560ff168152602001600660ff168152602001600760ff168152602001600860ff168152602001600960ff168152602001600a60ff168152602001600b60ff168152602001600c60ff168152602001600d60ff168152602001600e60ff168152602001600f60ff168152602001601060ff168152602001601160ff168152602001601260ff168152602001601360ff168152602001601460ff168152602001601560ff168152602001601660ff168152602001601760ff168152602001601860ff168152602001601960ff168152602001601a60ff168152602001601b60ff16815250600290601c620001399291906200022a565b5062000144620002cb565b604051809103906000f08015801562000161573d6000803e3d6000fd5b50600360006101000a81548173ffffffffffffffffffffffffffffffffffffffff021916908373ffffffffffffffffffffffffffffffffffffffff16021790555067016345785d8a00006004556706f05b59d3b200006005556000600655600a60075560b46008556000600b60006101000a81548160ff021916908315150217905550336000806101000a81548173ffffffffffffffffffffffffffffffffffffffff021916908373ffffffffffffffffffffffffffffffffffffffff1602179055506200030f565b82601c601f01602090048101928215620002b85791602002820160005b838211156200028757835183826101000a81548160ff021916908360ff160217905550926020019260010160208160000104928301926001030262000247565b8015620002b65782816101000a81549060ff021916905560010160208160000104928301926001030262000287565b505b509050620002c79190620002dc565b5090565b60405161078f806200362283390190565b6200030c91905b808211156200030857600081816101000a81549060ff021916905550600101620002e3565b5090565b90565b613303806200031f6000396000f30060806040526004361061018b576000357c0100000000000000000000000000000000000000000000000000000000900463ffffffff1680630ed469b8146101905780631167cdc7146101bb578063122ad73e146101e85780631439bf4b146102295780631f5ca1dc146102705780633153d14c1461029b5780633f4ba83a146102ea57806341fe39ec146103015780634e71e0c8146103585780635a09f2f41461036f5780635a572d9e1461039c5780635c975abb146103c7578063715018a6146103f65780637255d7291461040d5780637365870b14610424578063793e1210146104445780637c5b4a371461046f5780637eb32d3b1461049c5780638456cb59146104c75780638da5cb5b146104de5780638f8133ee1461053557806393ec53601461056057806398b594051461058b578063bf15e64c146105e8578063bf719efb14610615578063cced371d14610656578063cf87b00714610683578063d6635403146106ae578063e30c3978146106d9578063f2fde38b14610730578063f8bb7ec214610773575b600080fd5b34801561019c57600080fd5b506101a561079e565b6040518082815260200191505060405180910390f35b3480156101c757600080fd5b506101e6600480360381019080803590602001909291905050506107a4565b005b3480156101f457600080fd5b5061021360048036038101908080359060200190929190505050610809565b6040518082815260200191505060405180910390f35b34801561023557600080fd5b50610254600480360381019080803590602001909291905050506109ea565b604051808260ff1660ff16815260200191505060405180910390f35b34801561027c57600080fd5b50610285610a13565b6040518082815260200191505060405180910390f35b3480156102a757600080fd5b506102c660048036038101908080359060200190929190505050610a19565b60405180848152602001838152602001828152602001935050505060405180910390f35b3480156102f657600080fd5b506102ff610a43565b005b34801561030d57600080fd5b50610316610b02565b604051808273ffffffffffffffffffffffffffffffffffffffff1673ffffffffffffffffffffffffffffffffffffffff16815260200191505060405180910390f35b34801561036457600080fd5b5061036d610b28565b005b34801561037b57600080fd5b5061039a60048036038101908080359060200190929190505050610cc7565b005b3480156103a857600080fd5b506103b1610d2c565b6040518082815260200191505060405180910390f35b3480156103d357600080fd5b506103dc610d31565b604051808215151515815260200191505060405180910390f35b34801561040257600080fd5b5061040b610d44565b005b34801561041957600080fd5b50610422610e46565b005b6104426004803603810190808035906020019092919050505061108c565b005b34801561045057600080fd5b5061045961114b565b6040518082815260200191505060405180910390f35b34801561047b57600080fd5b5061049a60048036038101908080359060200190929190505050611150565b005b3480156104a857600080fd5b506104b161121c565b6040518082815260200191505060405180910390f35b3480156104d357600080fd5b506104dc611222565b005b3480156104ea57600080fd5b506104f36112e2565b604051808273ffffffffffffffffffffffffffffffffffffffff1673ffffffffffffffffffffffffffffffffffffffff16815260200191505060405180910390f35b34801561054157600080fd5b5061054a611307565b6040518082815260200191505060405180910390f35b34801561056c57600080fd5b5061057561130c565b6040518082815260200191505060405180910390f35b34801561059757600080fd5b506105b660048036038101908080359060200190929190505050611311565b604051808681526020018581526020018481526020018381526020018281526020019550505050505060405180910390f35b3480156105f457600080fd5b5061061360048036038101908080359060200190929190505050611347565b005b34801561062157600080fd5b50610640600480360381019080803590602001909291905050506113ac565b6040518082815260200191505060405180910390f35b34801561066257600080fd5b5061068160048036038101908080359060200190929190505050611412565b005b34801561068f57600080fd5b506106986116cb565b6040518082815260200191505060405180910390f35b3480156106ba57600080fd5b506106c36116d1565b6040518082815260200191505060405180910390f35b3480156106e557600080fd5b506106ee6116d6565b604051808273ffffffffffffffffffffffffffffffffffffffff1673ffffffffffffffffffffffffffffffffffffffff16815260200191505060405180910390f35b34801561073c57600080fd5b50610771600480360381019080803573ffffffffffffffffffffffffffffffffffffffff1690602001909291905050506116fc565b005b34801561077f57600080fd5b5061078861179b565b6040518082815260200191505060405180910390f35b60075481565b6000809054906101000a900473ffffffffffffffffffffffffffffffffffffffff1673ffffffffffffffffffffffffffffffffffffffff163373ffffffffffffffffffffffffffffffffffffffff161415156107ff57600080fd5b8060088190555050565b60008061081461317d565b61081c61317d565b600080600094506108366108318860006117a1565b6117e5565b9350600191505b60058260ff1610156109b35761085e610859888460ff166117a1565b6117e5565b92508360000151600881111561087057fe5b8360000151600881111561088057fe5b1115610891578293508194506109a6565b836000015160088111156108a157fe5b836000015160088111156108b157fe5b14156109a557600090505b60058160ff1610156109a45783602001518160ff166005811015156108dd57fe5b602002015160000b83602001518260ff166005811015156108fa57fe5b602002015160000b1315610913578293508194506109a4565b83602001518160ff1660058110151561092857fe5b602002015160000b83602001518260ff1660058110151561094557fe5b602002015160000b1215610958576109a4565b61096d6001600561260490919063ffffffff16565b8160ff1614801561098b5750836040015160000b836040015160000b135b15610997578293508194505b80806001019150506108bc565b5b5b818060010192505061083d565b6009600088815260200190815260200160002060010160008660ff1681526020019081526020016000205495505050505050919050565b600281601c811015156109f957fe5b60209182820401919006915054906101000a900460ff1681565b60055481565b600a6020528060005260406000206000915090508060000154908060020154908060040154905083565b6000809054906101000a900473ffffffffffffffffffffffffffffffffffffffff1673ffffffffffffffffffffffffffffffffffffffff163373ffffffffffffffffffffffffffffffffffffffff16141515610a9e57600080fd5b600b60009054906101000a900460ff161515610ab957600080fd5b6000600b60006101000a81548160ff0219169083151502179055507f7805862f689e2f13df9f062ff482ad3ad112aca9e0847911ed832e158c525b3360405160405180910390a1565b600360009054906101000a900473ffffffffffffffffffffffffffffffffffffffff1681565b600160009054906101000a900473ffffffffffffffffffffffffffffffffffffffff1673ffffffffffffffffffffffffffffffffffffffff163373ffffffffffffffffffffffffffffffffffffffff16141515610b8457600080fd5b600160009054906101000a900473ffffffffffffffffffffffffffffffffffffffff1673ffffffffffffffffffffffffffffffffffffffff166000809054906101000a900473ffffffffffffffffffffffffffffffffffffffff1673ffffffffffffffffffffffffffffffffffffffff167f8be0079c531659141344cd1fd0a4f28419497f9722a3daafe3b4186f6b6457e060405160405180910390a3600160009054906101000a900473ffffffffffffffffffffffffffffffffffffffff166000806101000a81548173ffffffffffffffffffffffffffffffffffffffff021916908373ffffffffffffffffffffffffffffffffffffffff1602179055506000600160006101000a81548173ffffffffffffffffffffffffffffffffffffffff021916908373ffffffffffffffffffffffffffffffffffffffff160217905550565b6000809054906101000a900473ffffffffffffffffffffffffffffffffffffffff1673ffffffffffffffffffffffffffffffffffffffff163373ffffffffffffffffffffffffffffffffffffffff16141515610d2257600080fd5b8060078190555050565b600781565b600b60009054906101000a900460ff1681565b6000809054906101000a900473ffffffffffffffffffffffffffffffffffffffff1673ffffffffffffffffffffffffffffffffffffffff163373ffffffffffffffffffffffffffffffffffffffff16141515610d9f57600080fd5b6000809054906101000a900473ffffffffffffffffffffffffffffffffffffffff1673ffffffffffffffffffffffffffffffffffffffff167ff8df31144d9c2f0f6b59d69b8b98abd5459d07f2742c4df920b25aae33c6482060405160405180910390a260008060006101000a81548173ffffffffffffffffffffffffffffffffffffffff021916908373ffffffffffffffffffffffffffffffffffffffff160217905550565b60008060008060009054906101000a900473ffffffffffffffffffffffffffffffffffffffff1673ffffffffffffffffffffffffffffffffffffffff163373ffffffffffffffffffffffffffffffffffffffff16141515610ea657600080fd5b600b60009054906101000a900460ff16151515610ec257600080fd5b610ecc6000612625565b9250610ed783612625565b915060a06040519081016040528084815260200160058152602001601c815260200160008152602001610f156008544261283590919063ffffffff16565b815250600960008581526020019081526020016000206000820151816000015560208201518160020155604082015181600401556060820151816005015560808201518160060155905050610f6983612856565b600090505b600581101561105057610f8082612625565b9150606060405190810160405280838152602001600081526020016000815250600a6000848152602001908152602001600020600082015181600001556020820151816002015560408201518160040155905050816009600085815260200190815260200160002060010160008381526020019081526020016000208190555061100c83826003612a5d565b7f439f92d5ca6f2a76cb6a70363c3cda7a2254445edbaa7e64ffa7452ba4dc18c7826040518082815260200191505060405180910390a18080600101915050610f6e565b7f52bdea80a96f0ac08ef87faab573de7cc0e1e02cbc6950c7b558271c0e5eb897836040518082815260200191505060405180910390a1505050565b6000600b60009054906101000a900460ff161515156110aa57600080fd5b600454341415156110ba57600080fd5b600a60008381526020019081526020016000209050338160030160008360040154815260200190815260200160002060006101000a81548173ffffffffffffffffffffffffffffffffffffffff021916908373ffffffffffffffffffffffffffffffffffffffff16021790555061113f6001826004015461283590919063ffffffff16565b81600401819055505050565b600581565b6000809054906101000a900473ffffffffffffffffffffffffffffffffffffffff1673ffffffffffffffffffffffffffffffffffffffff163373ffffffffffffffffffffffffffffffffffffffff161415156111ab57600080fd5b80600654101515156111bc57600080fd5b6111d18160065461260490919063ffffffff16565b503373ffffffffffffffffffffffffffffffffffffffff166108fc829081150290604051600060405180830381858888f19350505050158015611218573d6000803e3d6000fd5b5050565b60065481565b6000809054906101000a900473ffffffffffffffffffffffffffffffffffffffff1673ffffffffffffffffffffffffffffffffffffffff163373ffffffffffffffffffffffffffffffffffffffff1614151561127d57600080fd5b600b60009054906101000a900460ff1615151561129957600080fd5b6001600b60006101000a81548160ff0219169083151502179055507f6985a02210a168e66602d3235cb6db0e70f92b3ba4d376a33c0f3d9434bff62560405160405180910390a1565b6000809054906101000a900473ffffffffffffffffffffffffffffffffffffffff1681565b601c81565b600481565b60096020528060005260406000206000915090508060000154908060020154908060040154908060050154908060060154905085565b6000809054906101000a900473ffffffffffffffffffffffffffffffffffffffff1673ffffffffffffffffffffffffffffffffffffffff163373ffffffffffffffffffffffffffffffffffffffff161415156113a257600080fd5b8060048190555050565b6000806000809150600090505b60058110156113f1576113e26113cf85836117a1565b600401548361283590919063ffffffff16565b915080806001019150506113b9565b61140660045483612c6490919063ffffffff16565b91508192505050919050565b60008060008060008060009054906101000a900473ffffffffffffffffffffffffffffffffffffffff1673ffffffffffffffffffffffffffffffffffffffff163373ffffffffffffffffffffffffffffffffffffffff1614151561147557600080fd5b600b60009054906101000a900460ff1615151561149157600080fd5b600960008781526020019081526020016000206006015442101515156114b657600080fd5b6114bf866113ac565b9450600093505b60058410156114fa576114db86856002612a5d565b6114ed6114e887866117a1565b612ca2565b83806001019450506114c6565b600554851015156115f95761150e86610809565b92506000600a600085815260200190815260200160002060040154141561154f576115448560065461283590919063ffffffff16565b6006819055506115f4565b61158b61157a606461156c60075489612c6490919063ffffffff16565b61300e90919063ffffffff16565b60065461283590919063ffffffff16565b6006819055506115bc60646115ae60075460640388612c6490919063ffffffff16565b61300e90919063ffffffff16565b94506115e7600a6000858152602001908152602001600020600401548661300e90919063ffffffff16565b91506115f38383613038565b5b6116c3565b600093505b60058410156116c257600090505b61161686856117a1565b600401548110156116b55761162b86856117a1565b600301600082815260200190815260200160002060009054906101000a900473ffffffffffffffffffffffffffffffffffffffff1673ffffffffffffffffffffffffffffffffffffffff166108fc6004549081150290604051600060405180830381858888f193505050501580156116a7573d6000803e3d6000fd5b50808060010191505061160c565b83806001019450506115fe565b5b505050505050565b60085481565b600581565b600160009054906101000a900473ffffffffffffffffffffffffffffffffffffffff1681565b6000809054906101000a900473ffffffffffffffffffffffffffffffffffffffff1673ffffffffffffffffffffffffffffffffffffffff163373ffffffffffffffffffffffffffffffffffffffff1614151561175757600080fd5b80600160006101000a81548173ffffffffffffffffffffffffffffffffffffffff021916908373ffffffffffffffffffffffffffffffffffffffff16021790555050565b60045481565b6000600a6000600960008681526020019081526020016000206001016000858152602001908152602001600020548152602001908152602001600020905092915050565b6117ed61317d565b6117f56131b2565b6117fd6131d5565b6118056131f8565b61180d61321b565b6000806000806000608060405190810160405280600060ff168152602001600060ff168152602001600060ff168152602001600060ff16815250985060e060405190810160405280600060ff168152602001600060ff168152602001600060ff168152602001600060ff168152602001600060ff168152602001600060ff168152602001600060ff16815250975060a0604051908101604052807fffffffffffffffffffffffffffffffffffffffffffffffffffffffffffffffff60000b81526020017fffffffffffffffffffffffffffffffffffffffffffffffffffffffffffffffff60000b81526020017fffffffffffffffffffffffffffffffffffffffffffffffffffffffffffffffff60000b81526020017fffffffffffffffffffffffffffffffffffffffffffffffffffffffffffffffff60000b81526020017fffffffffffffffffffffffffffffffffffffffffffffffffffffffffffffffff60000b815250965060408051908101604052807fffffffffffffffffffffffffffffffffffffffffffffffffffffffffffffffff60000b81526020017fffffffffffffffffffffffffffffffffffffffffffffffffffffffffffffffff60000b81525095507fffffffffffffffffffffffffffffffffffffffffffffffffffffffffffffffff9450600093508a6001019250600091505b6005821015611dc157611a6560018a85600086815260200190815260200160002060000160009054906101000a900460ff166003811115611a4057fe5b60ff16600481101515611a4f57fe5b602002015160ff1661283590919063ffffffff16565b8984600085815260200190815260200160002060000160009054906101000a900460ff166003811115611a9457fe5b60ff16600481101515611aa357fe5b602002019060ff16908160ff1681525050611b0d60018985600086815260200190815260200160002060000160019054906101000a900460ff166006811115611ae857fe5b60ff16600781101515611af757fe5b602002015160ff1661283590919063ffffffff16565b8884600085815260200190815260200160002060000160019054906101000a900460ff166006811115611b3c57fe5b60ff16600781101515611b4b57fe5b602002019060ff16908160ff168152505060048884600085815260200190815260200160002060000160019054906101000a900460ff166006811115611b8d57fe5b60ff16600781101515611b9c57fe5b602002015160ff161415611bdf5760079350606060405190810160405280856008811115611bc657fe5b81526020018881526020018660000b81525099506125f6565b60038884600085815260200190815260200160002060000160019054906101000a900460ff166006811115611c1057fe5b60ff16600781101515611c1f57fe5b602002015160ff161415611c84576003935082600083815260200190815260200160002060000160019054906101000a900460ff166006811115611c5f57fe5b876000600581101515611c6e57fe5b602002019060000b908160000b81525050611db4565b60028884600085815260200190815260200160002060000160019054906101000a900460ff166006811115611cb557fe5b60ff16600781101515611cc457fe5b602002015160ff161415611db3577fffffffffffffffffffffffffffffffffffffffffffffffffffffffffffffffff866000600281101515611d0257fe5b602002015160000b1415611d635782600083815260200190815260200160002060000160019054906101000a900460ff166006811115611d3e57fe5b866000600281101515611d4d57fe5b602002019060000b908160000b81525050611db2565b82600083815260200190815260200160002060000160019054906101000a900460ff166006811115611d9157fe5b866001600281101515611da057fe5b602002019060000b908160000b815250505b5b5b8180600101925050611a03565b60058984600080815260200190815260200160002060000160009054906101000a900460ff166003811115611df257fe5b60ff16600481101515611e0157fe5b602002015160ff161415611f89576004611e8584600080815260200190815260200160002060000160019054906101000a900460ff166006811115611e4257fe5b60ff168560006004815260200190815260200160002060000160019054906101000a900460ff166006811115611e7457fe5b60ff1661260490919063ffffffff16565b1415611ee357600893508260006004815260200190815260200160002060000160019054906101000a900460ff166006811115611ebe57fe5b876000600581101515611ecd57fe5b602002019060000b908160000b81525050611f53565b60059350600091505b6005821015611f525782600083600403815260200190815260200160002060000160019054906101000a900460ff166006811115611f2657fe5b8783600581101515611f3457fe5b602002019060000b908160000b815250508180600101925050611eec565b5b8260006004815260200190815260200160002060000160009054906101000a900460ff166003811115611f8257fe5b94506125c9565b60036008811115611f9657fe5b846008811115611fa257fe5b1415611ff1577fffffffffffffffffffffffffffffffffffffffffffffffffffffffffffffffff866001600281101515611fd857fe5b602002015160000b141515611fec57600693505b6125c8565b7fffffffffffffffffffffffffffffffffffffffffffffffffffffffffffffffff86600060028110151561202157fe5b602002015160000b14156121a55760046120a584600080815260200190815260200160002060000160019054906101000a900460ff16600681111561206257fe5b60ff168560006004815260200190815260200160002060000160019054906101000a900460ff16600681111561209457fe5b60ff1661260490919063ffffffff16565b141561210357600493508260006004815260200190815260200160002060000160019054906101000a900460ff1660068111156120de57fe5b8760006005811015156120ed57fe5b602002019060000b908160000b8152505061216f565b600091505b600582101561216e5782600083600403815260200190815260200160002060000160019054906101000a900460ff16600681111561214257fe5b878360058110151561215057fe5b602002019060000b908160000b815250508180600101925050612108565b5b8260006004815260200190815260200160002060000160009054906101000a900460ff16600381111561219e57fe5b94506125c7565b7fffffffffffffffffffffffffffffffffffffffffffffffffffffffffffffffff8660016002811015156121d557fe5b602002015160000b14151561248657600293508560016002811015156121f757fe5b602002015160000b86600060028110151561220e57fe5b602002015160000b13156122895785600060028110151561222b57fe5b602002015187600060058110151561223f57fe5b602002019060000b908160000b8152505085600160028110151561225f57fe5b602002015187600160058110151561227357fe5b602002019060000b908160000b815250506122f2565b85600160028110151561229857fe5b60200201518760006005811015156122ac57fe5b602002019060000b908160000b815250508560006002811015156122cc57fe5b60200201518760016005811015156122e057fe5b602002019060000b908160000b815250505b600091505b60058210156124815785600060028110151561230f57fe5b602002015160000b83600084815260200190815260200160002060000160019054906101000a900460ff16600681111561234557fe5b60000b1415801561239c575085600160028110151561236057fe5b602002015160000b83600084815260200190815260200160002060000160019054906101000a900460ff16600681111561239657fe5b60000b14155b156123f45782600083815260200190815260200160002060000160019054906101000a900460ff1660068111156123cf57fe5b8760026005811015156123de57fe5b602002019060000b908160000b81525050612474565b85600060028110151561240357fe5b602002015160000b83600084815260200190815260200160002060000160019054906101000a900460ff16600681111561243957fe5b60000b14156124735782600083815260200190815260200160002060000160009054906101000a900460ff16600381111561247057fe5b94505b5b81806001019250506122f7565b6125c6565b6001935085600060028110151561249957fe5b60200201518760006005811015156124ad57fe5b602002019060000b908160000b8152505060039050600091505b60058210156125c5578560006002811015156124df57fe5b602002015160000b83600084815260200190815260200160002060000160019054906101000a900460ff16600681111561251557fe5b60000b1415156125875782600083815260200190815260200160002060000160019054906101000a900460ff16600681111561254d57fe5b878260058110151561255b57fe5b602002019060000b908160000b8152505061258060018261260490919063ffffffff16565b90506125b8565b82600083815260200190815260200160002060000160009054906101000a900460ff1660038111156125b557fe5b94505b81806001019250506124c7565b5b5b5b5b6060604051908101604052808560088111156125e157fe5b81526020018881526020018660000b81525099505b505050505050505050919050565b60008083831115151561261657600080fd5b82840390508091505092915050565b60008060009054906101000a900473ffffffffffffffffffffffffffffffffffffffff1673ffffffffffffffffffffffffffffffffffffffff163373ffffffffffffffffffffffffffffffffffffffff1614151561268257600080fd5b600360009054906101000a900473ffffffffffffffffffffffffffffffffffffffff1673ffffffffffffffffffffffffffffffffffffffff1663f3be762660003633866040516020018085858082843782019150508373ffffffffffffffffffffffffffffffffffffffff1673ffffffffffffffffffffffffffffffffffffffff166c010000000000000000000000000281526014018281526020019450505050506040516020818303038152906040526040518082805190602001908083835b6020831015156127685780518252602082019150602081019050602083039250612743565b6001836020036101000a03801982511681845116808217855250505050505090500191505060405180910390206040518263ffffffff167c0100000000000000000000000000000000000000000000000000000000028152600401808260001916600019168152602001915050602060405180830381600087803b1580156127ef57600080fd5b505af1158015612803573d6000803e3d6000fd5b505050506040513d602081101561281957600080fd5b8101908080519060200190929190505050600190049050919050565b600080828401905083811015151561284c57600080fd5b8091505092915050565b600061286061323d565b6000806000806000809054906101000a900473ffffffffffffffffffffffffffffffffffffffff1673ffffffffffffffffffffffffffffffffffffffff163373ffffffffffffffffffffffffffffffffffffffff161415156128c157600080fd5b6009600088815260200190815260200160002060030195506002601c806020026040519081016040528092919082601c8015612938576020028201916000905b82829054906101000a900460ff1660ff16815260200190600101906020826000010492830192600103820291508084116129015790505b50505050509450601c9350600090505b6001601c03811015612a0d576129816129728561296484612625565b61315890919063ffffffff16565b8261283590919063ffffffff16565b915061299760018561260490919063ffffffff16565b93508482601c811015156129a757fe5b602002015192508481601c811015156129bc57fe5b60200201518583601c811015156129cf57fe5b602002019060ff16908160ff1681525050828582601c811015156129ef57fe5b602002019060ff16908160ff16815250508080600101915050612948565b600090505b601c811015612a54578481601c81101515612a2957fe5b602002015160ff16866000838152602001908152602001600020819055508080600101915050612a12565b50505050505050565b60008060008060008060009054906101000a900473ffffffffffffffffffffffffffffffffffffffff1673ffffffffffffffffffffffffffffffffffffffff163373ffffffffffffffffffffffffffffffffffffffff16141515612ac057600080fd5b612aca88886117a1565b9450600960008981526020019081526020016000209350836003019250612afe85600201548761283590919063ffffffff16565b9150846002015490505b81811015612c5a576040805190810160405280612b456004866000896005015481526020019081526020016000205461315890919063ffffffff16565b6003811115612b5057fe5b6003811115612b5b57fe5b8152602001612b8a6004866000896005015481526020019081526020016000205461300e90919063ffffffff16565b6006811115612b9557fe5b6006811115612ba057fe5b81525085600101600083815260200190815260200160002060008201518160000160006101000a81548160ff02191690836003811115612bdc57fe5b021790555060208201518160000160016101000a81548160ff02191690836006811115612c0557fe5b0217905550905050612c256001856005015461283590919063ffffffff16565b8460050181905550612c456001866002015461283590919063ffffffff16565b85600201819055508080600101915050612b08565b5050505050505050565b6000806000841415612c795760009150612c9b565b8284029050828482811515612c8a57fe5b04141515612c9757600080fd5b8091505b5092915050565b6000612cac613261565b6000612cb6613284565b600080866001019550600091505b6005821015612d595785600083815260200190815260200160002060000160009054906101000a900460ff166003811115612cfb57fe5b600487600085815260200190815260200160002060000160019054906101000a900460ff166006811115612d2b57fe5b02018583600581101515612d3b57fe5b602002019060ff16908160ff16815250508180600101925050612cc4565b600091505b612d736001600561260490919063ffffffff16565b82101561300557600090505b612da682612d986001600561260490919063ffffffff16565b61260490919063ffffffff16565b8160ff161015612ff857846001820160ff16600581101515612dc457fe5b602002015160ff16858260ff16600581101515612ddd57fe5b602002015160ff161115612feb57846001820160ff16600581101515612dff57fe5b60200201519350848160ff16600581101515612e1757fe5b6020020151856001830160ff16600581101515612e3057fe5b602002019060ff16908160ff168152505083858260ff16600581101515612e5357fe5b602002019060ff16908160ff16815250508560006001830160ff1681526020019081526020016000206040805190810160405290816000820160009054906101000a900460ff166003811115612ea557fe5b6003811115612eb057fe5b81526020016000820160019054906101000a900460ff166006811115612ed257fe5b6006811115612edd57fe5b8152505092508560008260ff1681526020019081526020016000208660006001840160ff1681526020019081526020016000206000820160009054906101000a900460ff168160000160006101000a81548160ff02191690836003811115612f4157fe5b02179055506000820160019054906101000a900460ff168160000160016101000a81548160ff02191690836006811115612f7757fe5b0217905550905050828660008360ff16815260200190815260200160002060008201518160000160006101000a81548160ff02191690836003811115612fb957fe5b021790555060208201518160000160016101000a81548160ff02191690836006811115612fe257fe5b02179055509050505b8080600101915050612d7f565b8180600101925050612d5e565b50505050505050565b60008060008311151561302057600080fd5b828481151561302b57fe5b0490508091505092915050565b60008060009054906101000a900473ffffffffffffffffffffffffffffffffffffffff1673ffffffffffffffffffffffffffffffffffffffff163373ffffffffffffffffffffffffffffffffffffffff1614151561309557600080fd5b600090505b600a60008481526020019081526020016000206004015481101561315357600a6000848152602001908152602001600020600301600082815260200190815260200160002060009054906101000a900473ffffffffffffffffffffffffffffffffffffffff1673ffffffffffffffffffffffffffffffffffffffff166108fc839081150290604051600060405180830381858888f19350505050158015613145573d6000803e3d6000fd5b50808060010191505061309a565b505050565b600080821415151561316957600080fd5b818381151561317457fe5b06905092915050565b60e0604051908101604052806000600881111561319657fe5b81526020016131a36132b4565b81526020016000800b81525090565b608060405190810160405280600490602082028038833980820191505090505090565b60e060405190810160405280600790602082028038833980820191505090505090565b60a060405190810160405280600590602082028038833980820191505090505090565b6040805190810160405280600290602082028038833980820191505090505090565b61038060405190810160405280601c90602082028038833980820191505090505090565b60a060405190810160405280600590602082028038833980820191505090505090565b60408051908101604052806000600381111561329c57fe5b8152602001600060068111156132ae57fe5b81525090565b60a0604051908101604052806005906020820280388339808201915050905050905600a165627a7a72305820bdea68a4e6454dd0a68bf1b89e20dda8118d410e52bc37a80ca537c259fe4314002960806040527f68d8add98e690000000000000000000000000000000000000000000000000000600290600019169055336000806101000a81548173ffffffffffffffffffffffffffffffffffffffff021916908373ffffffffffffffffffffffffffffffffffffffff1602179055506107128061007d6000396000f300608060405260043610610078576000357c0100000000000000000000000000000000000000000000000000000000900463ffffffff1680634e71e0c81461007d578063715018a6146100945780638da5cb5b146100ab578063e30c397814610102578063f2fde38b14610159578063f3be76261461019c575b600080fd5b34801561008957600080fd5b506100926101e9565b005b3480156100a057600080fd5b506100a9610388565b005b3480156100b757600080fd5b506100c061048a565b604051808273ffffffffffffffffffffffffffffffffffffffff1673ffffffffffffffffffffffffffffffffffffffff16815260200191505060405180910390f35b34801561010e57600080fd5b506101176104af565b604051808273ffffffffffffffffffffffffffffffffffffffff1673ffffffffffffffffffffffffffffffffffffffff16815260200191505060405180910390f35b34801561016557600080fd5b5061019a600480360381019080803573ffffffffffffffffffffffffffffffffffffffff1690602001909291905050506104d5565b005b3480156101a857600080fd5b506101cb6004803603810190808035600019169060200190929190505050610574565b60405180826000191660001916815260200191505060405180910390f35b600160009054906101000a900473ffffffffffffffffffffffffffffffffffffffff1673ffffffffffffffffffffffffffffffffffffffff163373ffffffffffffffffffffffffffffffffffffffff1614151561024557600080fd5b600160009054906101000a900473ffffffffffffffffffffffffffffffffffffffff1673ffffffffffffffffffffffffffffffffffffffff166000809054906101000a900473ffffffffffffffffffffffffffffffffffffffff1673ffffffffffffffffffffffffffffffffffffffff167f8be0079c531659141344cd1fd0a4f28419497f9722a3daafe3b4186f6b6457e060405160405180910390a3600160009054906101000a900473ffffffffffffffffffffffffffffffffffffffff166000806101000a81548173ffffffffffffffffffffffffffffffffffffffff021916908373ffffffffffffffffffffffffffffffffffffffff1602179055506000600160006101000a81548173ffffffffffffffffffffffffffffffffffffffff021916908373ffffffffffffffffffffffffffffffffffffffff160217905550565b6000809054906101000a900473ffffffffffffffffffffffffffffffffffffffff1673ffffffffffffffffffffffffffffffffffffffff163373ffffffffffffffffffffffffffffffffffffffff161415156103e357600080fd5b6000809054906101000a900473ffffffffffffffffffffffffffffffffffffffff1673ffffffffffffffffffffffffffffffffffffffff167ff8df31144d9c2f0f6b59d69b8b98abd5459d07f2742c4df920b25aae33c6482060405160405180910390a260008060006101000a81548173ffffffffffffffffffffffffffffffffffffffff021916908373ffffffffffffffffffffffffffffffffffffffff160217905550565b6000809054906101000a900473ffffffffffffffffffffffffffffffffffffffff1681565b600160009054906101000a900473ffffffffffffffffffffffffffffffffffffffff1681565b6000809054906101000a900473ffffffffffffffffffffffffffffffffffffffff1673ffffffffffffffffffffffffffffffffffffffff163373ffffffffffffffffffffffffffffffffffffffff1614151561053057600080fd5b80600160006101000a81548173ffffffffffffffffffffffffffffffffffffffff021916908373ffffffffffffffffffffffffffffffffffffffff16021790555050565b60008060009054906101000a900473ffffffffffffffffffffffffffffffffffffffff1673ffffffffffffffffffffffffffffffffffffffff163373ffffffffffffffffffffffffffffffffffffffff161415156105d157600080fd5b81600260008282541892505081600019169055508160025442446040516020018085600019166000191681526020018460001916600019168152602001838152602001828152602001807fe58fb0e781a3e3818de0a4a8e0a58de0a4a6e0a580ed959cd8add98e4e6f2e3181526020017f203a2920000000000000000000000000000000000000000000000000000000008152506024019450505050506040516020818303038152906040526040518082805190602001908083835b6020831015156106b2578051825260208201915060208101905060208303925061068d565b6001836020036101000a038019825116818451168082178552505050505050905001915050604051809103902090509190505600a165627a7a723058208b48c27fcca166ce64702ddfa3212ef3a1f3f997c62d0974838e87a97da022930029",
  "source": "pragma solidity ^0.4.24;\n\nimport \"./Base.sol\";\nimport \"./openzeppelin-solidity/lifecycle/Pausable.sol\";\n\ncontract InfinityGame is Base, Pausable{\n    function bet(uint256 _playerID) public payable whenNotPaused {\n        require (msg.value == playerLimit);\n        Player storage player = IDToPlayers[_playerID];\n        player.bettor[player.bettorLength] = msg.sender;\n        player.bettorLength = player.bettorLength.add(1);\n    }\n\n    event CreatePlayer (uint256 playerID);\n    event CreatGame (uint256 gameID);\n\n    function createGame() public onlyOwner whenNotPaused {\n        uint256 gameID = _rand(0);\n        uint256 playerID = _rand(gameID);\n\n        IDToGames[gameID] = Game({\n            gameID: gameID,\n            playersLength: NUMBER_OF_PLAYER,\n            deckLength: NUMBER_OF_TOTAL_CARDS,\n            dealedNumber: 0,\n            endTime: block.timestamp.add(timeOfAGame)\n        });\n\n        _shuffle(gameID);\n\n        for (uint256 i = 0; i < NUMBER_OF_PLAYER; i++) {\n            playerID = _rand(playerID);\n\n            IDToPlayers[playerID] = Player({\n                playerID: playerID,\n                handCardLength: 0,\n                bettorLength: 0\n            });\n\n            IDToGames[gameID].playersID[i] = playerID;\n            _dealCards(gameID, i, 3);\n\n            emit CreatePlayer(playerID);\n        }\n\n        emit CreatGame(gameID);\n    }\n\n    function _dealCards(uint256 _gameID, uint256 _playerNum, uint256 _numOfDeal) private onlyOwner {\n        Player storage player = getPlayerInfoOfAGame(_gameID, _playerNum);\n        Game storage game = IDToGames[_gameID];\n        mapping(uint256 => uint256) deck = game.deck;\n        uint256 numOfDeal = _numOfDeal.add(player.handCardLength);\n\n        for (uint i = player.handCardLength; i < numOfDeal; i++) {\n            player.handCard[i] = Card(Suit(deck[game.dealedNumber].mod(4)), Value(deck[game.dealedNumber].div(4)));\n            game.dealedNumber = game.dealedNumber.add(1);\n            player.handCardLength = player.handCardLength.add(1);\n        }\n    }\n\n    function _shuffle(uint256 _gameID) private onlyOwner {\n        mapping(uint256 => uint256) deck = IDToGames[_gameID].deck;\n        uint8[NUMBER_OF_TOTAL_CARDS] memory tmpdeck = cardArray;\n        uint256 num = NUMBER_OF_TOTAL_CARDS;\n        uint8 tmp;\n        uint256 n;\n\n        for (uint256 i = 0; i < NUMBER_OF_TOTAL_CARDS-1; i++) {\n            n = i.add(_rand(i).mod(num));\n            num = num.sub(1);\n            tmp = tmpdeck[n];\n            tmpdeck[n] = tmpdeck[i];\n            tmpdeck[i] = tmp;\n        }\n\n        for (i = 0; i < NUMBER_OF_TOTAL_CARDS; i++) {\n            deck[i] = tmpdeck[i];\n        }\n    }\n\n    function settlementGame(uint256 _gameID) public onlyOwner whenNotPaused {\n    //function settlementGame(uint256 _gameID, uint256 _winnerPlayer) public onlyOwner {\n        require(block.timestamp >= IDToGames[_gameID].endTime);\n        uint256 pool = getGameFundPool(_gameID);\n\n        for (uint256 i = 0; i < NUMBER_OF_PLAYER; i++) {\n            _dealCards(_gameID, i, 2);\n            _sortHandCard(getPlayerInfoOfAGame(_gameID, i));\n        }\n\n        if (pool >= minimumPoolBalance) {\n            uint256 winnerPlayer = _whoIsWinner(_gameID);\n            if (IDToPlayers[winnerPlayer].bettorLength == 0) {\n                adminEtherBalance = adminEtherBalance.add(pool);\n            }\n            else {\n                adminEtherBalance = adminEtherBalance.add(pool.mul(houseFee).div(100));\n                pool = pool.mul(100-houseFee).div(100);\n                uint256 avgEther = pool.div(IDToPlayers[winnerPlayer].bettorLength);\n\n                _distributionEther(winnerPlayer, avgEther);\n            }\n        }\n        else {\n            for (i = 0; i < NUMBER_OF_PLAYER; i++) {\n                for (uint256 j = 0; j < getPlayerInfoOfAGame(_gameID, i).bettorLength; j++) {\n                    getPlayerInfoOfAGame(_gameID, i).bettor[j].transfer(playerLimit);\n                }\n            }\n        }\n    }\n\n    function _sortHandCard(Player storage _player) private {\n        mapping(uint256 => Card) handCard = _player.handCard;\n        uint8[NUMBER_OF_HANDCARD] memory tmp;\n        uint8 tmpNumber;\n        Card memory tmpCard;\n\n        for (uint256 i = 0; i < 5; i++) {\n            tmp[i] = uint8(handCard[i].value) * 4 + uint8(handCard[i].suit);\n        }\n\n        for (i = 0; i < NUMBER_OF_HANDCARD.sub(1); i++) {\n            for (uint8 j = 0; j < NUMBER_OF_HANDCARD.sub(1).sub(i); j++) {\n                if (tmp[j] > tmp[j+1]) {\n                    tmpNumber = tmp[j+1];\n                    tmp[j+1] = tmp[j];\n                    tmp[j] = tmpNumber;\n\n                    tmpCard = handCard[j+1];\n                    handCard[j+1] = handCard[j];\n                    handCard[j] = tmpCard;\n                }\n            }\n        }\n    }\n\n    function _whoIsWinner(uint256 _gameID) public view returns (uint256) {\n        uint8 winner = 0;\n        EvaluateHand memory max = _evaluateHand(getPlayerInfoOfAGame(_gameID, 0));\n        EvaluateHand memory tmp;\n\n        for (uint8 i = 1; i < NUMBER_OF_PLAYER; i++) {\n            tmp = _evaluateHand(getPlayerInfoOfAGame(_gameID, i));\n\n            if (tmp.handValue > max.handValue) {\n                max = tmp;\n                winner = i;\n            }\n            else if (tmp.handValue == max.handValue) {\n                for (uint8 j = 0; j < NUMBER_OF_HANDCARD; j++) {\n                    if (tmp.compareCardArr[j] > max.compareCardArr[j]) {\n                        max = tmp;\n                        winner = i;\n                        break;\n                    }\n                    else if (tmp.compareCardArr[j] < max.compareCardArr[j]) {\n                        break;\n                    }\n                    else if (j == NUMBER_OF_HANDCARD.sub(1) && tmp.compareSuit > max.compareSuit) {\n                        max = tmp;\n                        winner = i;\n                    }\n                }\n            }\n        }\n\n        return IDToGames[_gameID].playersID[winner];\n    }\n\n    function _evaluateHand(Player storage _player) private view returns(EvaluateHand) {\n        uint8[NUMBER_OF_SUIT] memory suit_match = [0, 0, 0, 0];\n        uint8[NUMBER_OF_PIP] memory pip_match = [0, 0, 0, 0, 0, 0, 0];\n        int8[NUMBER_OF_HANDCARD] memory retOrder = [-1, -1, -1, -1, -1];\n        int8[2] memory pairs = [-1, -1];\n        int8 compareSuit = -1;\n        HandEnum handValue = HandEnum.Zilch;\n        mapping(uint256 => Card) _handCard = _player.handCard;\n\n        for (uint256 i = 0; i < NUMBER_OF_HANDCARD; i++) {\n            suit_match[uint8(_handCard[i].suit)] = uint8(suit_match[uint8(_handCard[i].suit)].add(1));\n            pip_match[uint8(_handCard[i].value)] = uint8(pip_match[uint8(_handCard[i].value)].add(1));\n\n            if (pip_match[uint8(_handCard[i].value)] == 4) {\n                handValue = HandEnum.FourOfAKind;\n                return EvaluateHand(handValue, retOrder, compareSuit);\n            }\n            else if (pip_match[uint8(_handCard[i].value)] == 3) {\n                handValue = HandEnum.ThreeOfAKind;\n                retOrder[0] = int8(_handCard[i].value);\n            }\n            else if (pip_match[uint8(_handCard[i].value)] == 2) {\n                if (pairs[0] == -1) {\n                    pairs[0] = int8(_handCard[i].value);\n                }\n                else {\n                    pairs[1] = int8(_handCard[i].value);\n                }\n            }\n        }\n\n        if (suit_match[uint8(_handCard[0].suit)] == 5) {\n            if (uint8(_handCard[4].value).sub(uint8(_handCard[0].value)) == 4) {\n                handValue = HandEnum.StraightFlush;\n                retOrder[0] = int8(_handCard[4].value);\n            }\n            else {\n                handValue = HandEnum.Flush;\n                for (i = 0; i < NUMBER_OF_HANDCARD; i++) {\n                    retOrder[i] = int8(_handCard[4-i].value);\n                }\n            }\n            compareSuit = int8(_handCard[4].suit);\n        }\n        else if (handValue == HandEnum.ThreeOfAKind) {\n            if (pairs[1] != -1) {\n                handValue = HandEnum.FullHouse;\n            }\n        }\n        else{\n            if (pairs[0] == -1) {\n                if (uint8(_handCard[4].value).sub(uint8(_handCard[0].value)) == 4) {\n                    handValue = HandEnum.Straight;\n                    retOrder[0] = int8(_handCard[4].value);\n                }\n                else {\n                    for (i = 0; i < NUMBER_OF_HANDCARD; i++) {\n                        retOrder[i] = int8(_handCard[4-i].value);\n                    }\n                }\n                compareSuit = int8(_handCard[4].suit);\n            }\n            // pair or two pair\n            else {\n                if (pairs[1] != -1) {\n                    handValue = HandEnum.TwoPair;\n                    if (pairs[0] > pairs[1]) {\n                        retOrder[0] = pairs[0];\n                        retOrder[1] = pairs[1];\n                    }\n                    else {\n                        retOrder[0] = pairs[1];\n                        retOrder[1] = pairs[0];\n                    }\n                    for (i = 0 ; i < NUMBER_OF_HANDCARD ; i++) {\n                        if (int8(_handCard[i].value) != pairs[0] && int8(_handCard[i].value) != pairs[1]) {\n                            retOrder[2] = int8(_handCard[i].value);\n                        }\n                        else if (int8(_handCard[i].value) == pairs[0]) {\n                            compareSuit = int8(_handCard[i].suit);\n                        }\n                    }\n                }\n                else {\n                    handValue = HandEnum.OnePair;\n                    retOrder[0] = pairs[0];\n                    uint256 j = 3;\n                    for (i = 0; i < NUMBER_OF_HANDCARD; i++) {\n                        if (int8(_handCard[i].value) != pairs[0]) {\n                            retOrder[j] = int8(_handCard[i].value);\n                            j = j.sub(1);\n                        }\n                        else {\n                            compareSuit = int8(_handCard[i].suit);\n                        }\n                    }\n                }\n            }\n        }\n        return EvaluateHand(handValue, retOrder, compareSuit);\n    }\n\n    function _distributionEther(uint256 _winnerPlayer, uint256 avgEther) private onlyOwner {\n        for (uint256 i = 0; i < IDToPlayers[_winnerPlayer].bettorLength; i++) {\n            IDToPlayers[_winnerPlayer].bettor[i].transfer(avgEther);\n        }\n    }\n\n    function adminWithdraw(uint256 _withdrawNumber) public onlyOwner {\n        require(adminEtherBalance >= _withdrawNumber);\n        adminEtherBalance.sub(_withdrawNumber);\n        msg.sender.transfer(_withdrawNumber);\n    }\n}",
  "sourcePath": "/Users/hank/Desktop/CS/Blockchain/TCI/Magic/contracts/InfinityGame.sol",
  "compiler": {
    "name": "solc",
    "version": "0.4.24+commit.e67f0147.Emscripten.clang"
  },
  "schemaVersion": "3.0.16",
  "updatedAt": "2020-01-02T08:40:35.243Z",
  "devdoc": {
    "methods": {
      "claimOwnership()": {
        "details": "Allows the pendingOwner address to finalize the transfer."
      },
      "pause()": {
        "details": "called by the owner to pause, triggers stopped state"
      },
      "renounceOwnership()": {
        "details": "Allows the current owner to relinquish control of the contract."
      },
      "transferOwnership(address)": {
        "details": "Allows the current owner to set the pendingOwner address.",
        "params": {
          "newOwner": "The address to transfer ownership to."
        }
      },
      "unpause()": {
        "details": "called by the owner to unpause, returns to normal state"
      }
    }
  },
  "userdoc": {
    "methods": {
      "renounceOwnership()": {
        "notice": "Renouncing to ownership will leave the contract without an owner. It will not be possible to call the functions with the `onlyOwner` modifier anymore."
      }
    }
  }
}